{
  "abi": [
    {
      "inputs": [
        {
          "internalType": "address",
          "name": "badgesAddress",
          "type": "address"
        }
      ],
      "stateMutability": "nonpayable",
      "type": "constructor"
    },
    {
      "inputs": [],
      "name": "ReentrancyGuardReentrantCall",
      "type": "error"
    },
    {
      "inputs": [
        {
          "internalType": "string",
          "name": "badgeUri",
          "type": "string"
        }
      ],
      "name": "addBadge",
      "outputs": [],
      "stateMutability": "nonpayable",
      "type": "function"
    },
    {
      "inputs": [
        {
          "internalType": "uint256",
          "name": "badgeId",
          "type": "uint256"
        },
        {
          "internalType": "uint256",
          "name": "amount",
          "type": "uint256"
        }
      ],
      "name": "mintBadge",
      "outputs": [],
      "stateMutability": "nonpayable",
      "type": "function"
    },
    {
      "inputs": [
        {
          "internalType": "uint256[]",
          "name": "badgeIds",
          "type": "uint256[]"
        },
        {
          "internalType": "uint256[]",
          "name": "amounts",
          "type": "uint256[]"
        }
      ],
      "name": "mintBadgesBatch",
      "outputs": [],
      "stateMutability": "nonpayable",
      "type": "function"
    },
    {
      "inputs": [
        {
          "internalType": "address",
          "name": "to",
          "type": "address"
        }
      ],
      "name": "mintPass",
      "outputs": [],
      "stateMutability": "nonpayable",
      "type": "function"
    }
  ],
  "bytecode": {
    "object": "0x608060405234801561001057600080fd5b50604051610d2f380380610d2f83398101604081905261002f91610059565b6001600081905580546001600160a01b0319166001600160a01b0392909216919091179055610089565b60006020828403121561006b57600080fd5b81516001600160a01b038116811461008257600080fd5b9392505050565b610c97806100986000396000f3fe608060405234801561001057600080fd5b506004361061004c5760003560e01c806351dfea2014610051578063e1004d3e14610066578063e739638214610079578063ea3c88e21461008c575b600080fd5b61006461005f3660046109a3565b61009f565b005b610064610074366004610a0f565b61029e565b610064610087366004610a81565b6105db565b61006461009a366004610ab1565b610741565b6001546040805163aadd9b9360e01b815290516000926001600160a01b03169162fdd58e913391849163aadd9b93916004808201926020929091908290030181865afa1580156100f3573d6000803e3d6000fd5b505050506040513d601f19601f820116820180604052508101906101179190610ad3565b6040516001600160e01b031960e085901b1681526001600160a01b0390921660048301526024820152604401602060405180830381865afa158015610160573d6000803e3d6000fd5b505050506040513d601f19601f820116820180604052508101906101849190610ad3565b11806101f75750600154604051630debfda360e41b81523360048201526001600160a01b039091169063debfda3090602401602060405180830381865afa1580156101d3573d6000803e3d6000fd5b505050506040513d601f19601f820116820180604052508101906101f79190610aec565b61021c5760405162461bcd60e51b815260040161021390610b0e565b60405180910390fd5b61022461092d565b6001546040516378abadb360e11b81526001600160a01b039091169063f1575b669061025c9033908890889088908890600401610b6d565b600060405180830381600087803b15801561027657600080fd5b505af115801561028a573d6000803e3d6000fd5b505050506102986001600055565b50505050565b6001546040805163aadd9b9360e01b815290516000926001600160a01b03169162fdd58e913391849163aadd9b93916004808201926020929091908290030181865afa1580156102f2573d6000803e3d6000fd5b505050506040513d601f19601f820116820180604052508101906103169190610ad3565b6040516001600160e01b031960e085901b1681526001600160a01b0390921660048301526024820152604401602060405180830381865afa15801561035f573d6000803e3d6000fd5b505050506040513d601f19601f820116820180604052508101906103839190610ad3565b11806103f65750600154604051630debfda360e41b81523360048201526001600160a01b039091169063debfda3090602401602060405180830381865afa1580156103d2573d6000803e3d6000fd5b505050506040513d601f19601f820116820180604052508101906103f69190610aec565b6104125760405162461bcd60e51b815260040161021390610b0e565b61041a61092d565b60015460408051635b80664560e01b815290516000926001600160a01b031691635b8066459160048083019260209291908290030181865afa158015610464573d6000803e3d6000fd5b505050506040513d601f19601f820116820180604052508101906104889190610ad3565b610493906001610bc3565b6001805460405163c452693960e01b81529293506001600160a01b03169163c4526939916104cc91859188918891908190600401610bea565b600060405180830381600087803b1580156104e657600080fd5b505af11580156104fa573d6000803e3d6000fd5b505060018054604051635f5c08cb60e01b81526001600160a01b039091169350635f5c08cb9250610532918491869190600401610c31565b600060405180830381600087803b15801561054c57600080fd5b505af1158015610560573d6000803e3d6000fd5b50505050600160009054906101000a90046001600160a01b03166001600160a01b031663fda162826040518163ffffffff1660e01b8152600401600060405180830381600087803b1580156105b457600080fd5b505af11580156105c8573d6000803e3d6000fd5b50505050506105d76001600055565b5050565b600154604051630debfda360e41b81523360048201526001600160a01b039091169063debfda3090602401602060405180830381865afa158015610623573d6000803e3d6000fd5b505050506040513d601f19601f820116820180604052508101906106479190610aec565b6106635760405162461bcd60e51b815260040161021390610b0e565b61066b61092d565b6001546040805163aadd9b9360e01b815290516001600160a01b0390921691635f5c08cb918491849163aadd9b939160048083019260209291908290030181865afa1580156106be573d6000803e3d6000fd5b505050506040513d601f19601f820116820180604052508101906106e29190610ad3565b60016040518463ffffffff1660e01b815260040161070293929190610c31565b600060405180830381600087803b15801561071c57600080fd5b505af1158015610730573d6000803e3d6000fd5b5050505061073e6001600055565b50565b6001546040805163aadd9b9360e01b815290516000926001600160a01b03169162fdd58e913391849163aadd9b93916004808201926020929091908290030181865afa158015610795573d6000803e3d6000fd5b505050506040513d601f19601f820116820180604052508101906107b99190610ad3565b6040516001600160e01b031960e085901b1681526001600160a01b0390921660048301526024820152604401602060405180830381865afa158015610802573d6000803e3d6000fd5b505050506040513d601f19601f820116820180604052508101906108269190610ad3565b11806108995750600154604051630debfda360e41b81523360048201526001600160a01b039091169063debfda3090602401602060405180830381865afa158015610875573d6000803e3d6000fd5b505050506040513d601f19601f820116820180604052508101906108999190610aec565b6108b55760405162461bcd60e51b815260040161021390610b0e565b6108bd61092d565b600154604051635f5c08cb60e01b81526001600160a01b0390911690635f5c08cb906108f190339086908690600401610c31565b600060405180830381600087803b15801561090b57600080fd5b505af115801561091f573d6000803e3d6000fd5b505050506105d76001600055565b60026000540361095057604051633ee5aeb560e01b815260040160405180910390fd5b6002600055565b60008083601f84011261096957600080fd5b50813567ffffffffffffffff81111561098157600080fd5b6020830191508360208260051b850101111561099c57600080fd5b9250929050565b600080600080604085870312156109b957600080fd5b843567ffffffffffffffff808211156109d157600080fd5b6109dd88838901610957565b909650945060208701359150808211156109f657600080fd5b50610a0387828801610957565b95989497509550505050565b60008060208385031215610a2257600080fd5b823567ffffffffffffffff80821115610a3a57600080fd5b818501915085601f830112610a4e57600080fd5b813581811115610a5d57600080fd5b866020828501011115610a6f57600080fd5b60209290920196919550909350505050565b600060208284031215610a9357600080fd5b81356001600160a01b0381168114610aaa57600080fd5b9392505050565b60008060408385031215610ac457600080fd5b50508035926020909101359150565b600060208284031215610ae557600080fd5b5051919050565b600060208284031215610afe57600080fd5b81518015158114610aaa57600080fd5b602080825260139082015272135a5b9d081c185cdcc81b9bdd08199bdd5b99606a1b604082015260600190565b81835260006001600160fb1b03831115610b5457600080fd5b8260051b80836020870137939093016020019392505050565b6001600160a01b0386168152608060208201819052600090610b929083018688610b3b565b8281036040840152610ba5818587610b3b565b83810360609094019390935250506000815260200195945050505050565b80820180821115610be457634e487b7160e01b600052601160045260246000fd5b92915050565b85815260806020820152836080820152838560a0830137600060a085830181019190915292151560408201529015156060820152601f909201601f19169091010192915050565b6001600160a01b039390931683526020830191909152604082015260806060820181905260009082015260a0019056fea2646970667358221220ea47b29028ffbcee079b1a8e3818d0de37c74cc0aed16175b0d950c022eef82264736f6c63430008140033",
    "linkReferences": {}
  }
}