{
  "abi": [
    {
      "inputs": [
        {
          "internalType": "uint256",
          "name": "x",
          "type": "uint256"
        },
        {
          "internalType": "uint256",
          "name": "y",
          "type": "uint256"
        }
      ],
      "name": "isPoint",
      "outputs": [
        {
          "internalType": "bool",
          "name": "",
          "type": "bool"
        }
      ],
      "stateMutability": "pure",
      "type": "function"
    },
    {
      "inputs": [
        {
          "internalType": "uint256",
          "name": "e",
          "type": "uint256"
        },
        {
          "internalType": "uint8",
          "name": "v",
          "type": "uint8"
        },
        {
          "internalType": "uint256",
          "name": "r",
          "type": "uint256"
        },
        {
          "internalType": "uint256",
          "name": "s",
          "type": "uint256"
        }
      ],
      "name": "recover",
      "outputs": [
        {
          "internalType": "uint256[2]",
          "name": "",
          "type": "uint256[2]"
        }
      ],
      "stateMutability": "view",
      "type": "function"
    },
    {
      "inputs": [
        {
          "internalType": "uint256",
          "name": "qx",
          "type": "uint256"
        },
        {
          "internalType": "uint256",
          "name": "qy",
          "type": "uint256"
        },
        {
          "internalType": "uint256",
          "name": "e",
          "type": "uint256"
        },
        {
          "internalType": "uint256",
          "name": "r",
          "type": "uint256"
        },
        {
          "internalType": "uint256",
          "name": "s",
          "type": "uint256"
        }
      ],
      "name": "verify",
      "outputs": [
        {
          "internalType": "bool",
          "name": "",
          "type": "bool"
        }
      ],
      "stateMutability": "view",
      "type": "function"
    }
  ],
  "bytecode": {
    "object": "0x608060405234801561001057600080fd5b50610b29806100206000396000f3fe608060405234801561001057600080fd5b50600436106100415760003560e01c80631340d09a146100465780634828f4a21461006e5780638554d92c1461008e575b600080fd5b6100596100543660046109a4565b6100a1565b60405190151581526020015b60405180910390f35b61008161007c3660046109c6565b6100c8565b6040516100659190610a09565b61005961009c366004610a3a565b61016a565b60006100ac8361022c565b600160601b63ffffffff60c01b03198384091490505b92915050565b6100d0610968565b60006100ea86600080516020610ad4833981519152610a8b565b9050600061010685600080516020610ad48339815191526102a4565b90506000600080516020610ad483398151915285830990506000600080516020610ad483398151915284840990506000610140888a6102c2565b9050600061015083858b85610329565b905061015b81610475565b9b9a5050505050505050505050565b60008061018583600080516020610ad48339815191526102a4565b90506000600080516020610ad483398151915282870990506000600080516020610ad4833981519152838709905060006101c183838c8c610329565b905060006101fd82600260200201516101e96003600160601b63ffffffff60c01b0319610a8b565b600160601b63ffffffff60c01b03196104f4565b90506000600160601b63ffffffff60c01b0319828460006020020151099098149b9a5050505050505050505050565b6000600160601b63ffffffff60c01b0319807f5ac635d8aa3a93e7b3ebbd55769886bc651d06b0cc53b0f63bce3c3e27d2604b600160601b63ffffffff60c01b0319856bfffffffffffffffffffffffd63ffffffff60c01b03190908600160601b63ffffffff60c01b03198085860985090892915050565b60006102bb836102b5600285610a8b565b846104f4565b9392505050565b6000806103016102d18561022c565b60046102ec6003600160601b63ffffffff60c01b0319610a8b565b6102f69190610a9e565b6101e9906001610ac0565b905060ff83161561031f5761031881196001610ac0565b8116610321565b805b949350505050565b610331610986565b600060405180606001604052807f6b17d1f2e12c4247f8bce6e563a440f277037d812deb33a0f4a13945d898c29681526020017f4fe342e2fe1a7f9b8ee7eb4a7c0f9e162bce33576b315ececbb6406837bf51f5815260200160018152509050600060405180606001604052808681526020018581526020016001815250905060006103bd8284610533565b9050600160ff1b8888175b8181166000036103e4576103dd600283610a9e565b91506103c8565b8982161561040457888216156103fc57829550610408565b849550610408565b8395505b610413600283610a9e565b9150811561046857610424866107c1565b9550898216156104515788821615610447576104408387610533565b9550610408565b6104408587610533565b88821615610463576104408487610533565b610408565b5050505050949350505050565b61047d610968565b600061049e8360026020020151600160601b63ffffffff60c01b03196102a4565b90506000600160601b63ffffffff60c01b03198283098451909150600160601b63ffffffff60c01b0319908290098352600160601b63ffffffff60c01b0319808284096020860151096020840152509092915050565b600060405160208152602080820152602060408201528460608201528360808201528260a082015260208160c08360056205fcd0fa5051949350505050565b61053b610986565b6040820151600090600160601b63ffffffff60c01b031990800990506000600160601b63ffffffff60c01b03198286600060200201510990506000600160601b63ffffffff60c01b031980866002602002015185096020880151096040870151909150600160601b63ffffffff60c01b031990800992506000600160601b63ffffffff60c01b03198487600060200201510990506000600160601b63ffffffff60c01b0319808960026020020151870960208901510990508184036106405780831461062b57604051806060016040528060018152602001600181526020016000815250955050505050506100c2565b610634886107c1565b955050505050506100c2565b600160601b63ffffffff60c01b031961066785600160601b63ffffffff60c01b0319610a8b565b83089150600160601b63ffffffff60c01b031982830994506000600160601b63ffffffff60c01b03198686099050600160601b63ffffffff60c01b03198684099550600160601b63ffffffff60c01b03196106d085600160601b63ffffffff60c01b0319610a8b565b83089150600160601b63ffffffff60c01b0319808260020961070090600160601b63ffffffff60c01b0319610a8b565b600160601b63ffffffff60c01b031961072789600160601b63ffffffff60c01b0319610a8b565b600160601b63ffffffff60c01b031986870908088752600160601b63ffffffff60c01b03198087860961076890600160601b63ffffffff60c01b0319610a8b565b8851600160601b63ffffffff60c01b03199081906107869082610a8b565b85088509086020880152604080890151908a0151600160601b63ffffffff60c01b031991829109840960408801525094979650505050505050565b6107c9610986565b60208201516000036107fa576040518060600160405280600181526020016001815260200160008152509050919050565b6040820151600090600160601b63ffffffff60c01b03199080098351909150600090600160601b63ffffffff60c01b031990819081908009600309600160601b63ffffffff60c01b0319808586096bfffffffffffffffffffffffd63ffffffff60c01b031909086020850151909150600090600160601b63ffffffff60c01b031990800990506000600160601b63ffffffff60c01b031980838860006020020151096004099050600160601b63ffffffff60c01b031980600283096108cd90600160601b63ffffffff60c01b0319610a8b565b600160601b63ffffffff60c01b031985860908855260408601516020870151600160601b63ffffffff60c01b0319918291096002096040860152600160601b63ffffffff60c01b0319808084800960080961093690600160601b63ffffffff60c01b0319610a8b565b8651600160601b63ffffffff60c01b03199081906109549082610a8b565b850886090860208601525092949350505050565b60405180604001604052806002906020820280368337509192915050565b60405180606001604052806003906020820280368337509192915050565b600080604083850312156109b757600080fd5b50508035926020909101359150565b600080600080608085870312156109dc57600080fd5b84359350602085013560ff811681146109f457600080fd5b93969395505050506040820135916060013590565b60408101818360005b6002811015610a31578151835260209283019290910190600101610a12565b50505092915050565b600080600080600060a08688031215610a5257600080fd5b505083359560208501359550604085013594606081013594506080013592509050565b634e487b7160e01b600052601160045260246000fd5b818103818111156100c2576100c2610a75565b600082610abb57634e487b7160e01b600052601260045260246000fd5b500490565b808201808211156100c2576100c2610a7556feffffffff00000000ffffffffffffffffbce6faada7179e84f3b9cac2fc632551a2646970667358221220b85159934c0d9934fa8f08db4ce6769290fab7eaed7cbc735c4cd5c9e7cf271764736f6c63430008140033",
    "linkReferences": {}
  }
}