{
  "abi": [
    {
      "inputs": [
        {
          "internalType": "contract IEntryPoint",
          "name": "_entryPoint",
          "type": "address"
        },
        {
          "internalType": "address",
          "name": "_anEllipticCurve",
          "type": "address"
        }
      ],
      "stateMutability": "nonpayable",
      "type": "constructor"
    },
    {
      "inputs": [],
      "name": "accountImplementation",
      "outputs": [
        {
          "internalType": "contract PasskeyAccount",
          "name": "",
          "type": "address"
        }
      ],
      "stateMutability": "view",
      "type": "function"
    },
    {
      "inputs": [
        {
          "internalType": "address",
          "name": "owner",
          "type": "address"
        },
        {
          "internalType": "uint256[2]",
          "name": "q",
          "type": "uint256[2]"
        },
        {
          "internalType": "string",
          "name": "credentialID",
          "type": "string"
        },
        {
          "internalType": "string",
          "name": "origin",
          "type": "string"
        },
        {
          "internalType": "uint256",
          "name": "salt",
          "type": "uint256"
        }
      ],
      "name": "createAccount",
      "outputs": [
        {
          "internalType": "contract PasskeyAccount",
          "name": "ret",
          "type": "address"
        }
      ],
      "stateMutability": "nonpayable",
      "type": "function"
    },
    {
      "inputs": [
        {
          "internalType": "address",
          "name": "owner",
          "type": "address"
        },
        {
          "internalType": "uint256[2]",
          "name": "q",
          "type": "uint256[2]"
        },
        {
          "internalType": "string",
          "name": "credentialID",
          "type": "string"
        },
        {
          "internalType": "string",
          "name": "origin",
          "type": "string"
        },
        {
          "internalType": "uint256",
          "name": "salt",
          "type": "uint256"
        }
      ],
      "name": "getAddress",
      "outputs": [
        {
          "internalType": "address",
          "name": "",
          "type": "address"
        }
      ],
      "stateMutability": "view",
      "type": "function"
    }
  ],
  "bytecode": {
    "object": "0x60a060405234801561001057600080fd5b506040516134f83803806134f883398101604081905261002f916100aa565b818160405161003d90610085565b6001600160a01b03928316815291166020820152604001604051809103906000f080158015610070573d6000803e3d6000fd5b506001600160a01b0316608052506100e49050565b6129c880610b3083390190565b6001600160a01b03811681146100a757600080fd5b50565b600080604083850312156100bd57600080fd5b82516100c881610092565b60208401519092506100d981610092565b809150509250929050565b608051610a2561010b6000396000818160510152818160f201526101cf0152610a256000f3fe60806040523480156200001157600080fd5b5060043610620000465760003560e01c806311464fbe146200004b5780639068c2f1146200008f578063b7eefaa914620000a6575b600080fd5b620000737f000000000000000000000000000000000000000000000000000000000000000081565b6040516001600160a01b03909116815260200160405180910390f35b62000073620000a0366004620003ad565b620000bd565b62000073620000b7366004620003ad565b6200019d565b600080620000cf87878787876200019d565b90506001600160a01b0381163b8015620000ec5750905062000194565b8360001b7f0000000000000000000000000000000000000000000000000000000000000000898989896040516024016200012a9493929190620004e6565b60408051601f198184030181529181526020820180516001600160e01b0316633ef6ada160e01b179052516200016090620002c8565b6200016d92919062000554565b8190604051809103906000f59050801580156200018e573d6000803e3d6000fd5b50925050505b95945050505050565b60006200027e8260001b60405180602001620001b990620002c8565b6020820181038252601f19601f820116604052507f000000000000000000000000000000000000000000000000000000000000000089898989604051602401620002079493929190620004e6565b60408051601f19818403018152918152602080830180516001600160e01b0316633ef6ada160e01b1790529051620002429392910162000554565b60408051601f198184030181529082905262000262929160200162000582565b6040516020818303038152906040528051906020012062000288565b9695505050505050565b6000620002978383306200029e565b9392505050565b6000604051836040820152846020820152828152600b8101905060ff815360559020949350505050565b61043a80620005b683390190565b634e487b7160e01b600052604160045260246000fd5b6040805190810167ffffffffffffffff81118282101715620003125762000312620002d6565b60405290565b600082601f8301126200032a57600080fd5b813567ffffffffffffffff80821115620003485762000348620002d6565b604051601f8301601f19908116603f01168101908282118183101715620003735762000373620002d6565b816040528381528660208588010111156200038d57600080fd5b836020870160208301376000602085830101528094505050505092915050565b600080600080600060c08688031215620003c657600080fd5b85356001600160a01b0381168114620003de57600080fd5b94506020603f87018813620003f257600080fd5b620003fc620002ec565b80606089018a8111156200040f57600080fd5b838a015b818110156200042c578035845292840192840162000413565b5090965035915067ffffffffffffffff9050808211156200044c57600080fd5b6200045a89838a0162000318565b945060808801359150808211156200047157600080fd5b50620004808882890162000318565b9598949750929560a001359392505050565b60005b83811015620004af57818101518382015260200162000495565b50506000910152565b60008151808452620004d281602086016020860162000492565b601f01601f19169290920160200192915050565b6001600160a01b03851681526000602080830186835b60028110156200051b57815183529183019190830190600101620004fc565b5050505060a060608301526200053560a0830185620004b8565b8281036080840152620005498185620004b8565b979650505050505050565b6001600160a01b03831681526040602082018190526000906200057a90830184620004b8565b949350505050565b600083516200059681846020880162000492565b835190830190620005ac81836020880162000492565b0194935050505056fe608060405260405161043a38038061043a8339810160408190526100229161027f565b61002e82826000610035565b5050610369565b61003e83610061565b60008251118061004b5750805b1561005c5761005a83836100a1565b505b505050565b61006a816100be565b6040516001600160a01b038216907fbc7cd75a20ee27fd9adebab32041f755214dbc6bffa90cc0225b39da2e5c2d3b90600090a250565b60606100b7838361001a61013a60201b17610153565b9392505050565b806001600160a01b03163b6000036100f957604051634c9c8ce360e01b81526001600160a01b03821660048201526024015b60405180910390fd5b7f360894a13ba1a3210667c828492db98dca3e2076cc3735a920a3ca505d382bbc80546001600160a01b0319166001600160a01b0392909216919091179055565b604051630a12f52160e11b815260040160405180910390fd5b6060600080856001600160a01b031685604051610170919061034d565b600060405180830381855af49150503d80600081146101ab576040519150601f19603f3d011682016040523d82523d6000602084013e6101b0565b606091505b5090925090506101c2868383876101cc565b9695505050505050565b6060831561021a57825160000361021357846001600160a01b03163b60000361021357604051639996b31560e01b81526001600160a01b03861660048201526024016100f0565b5081610224565b610224838361022c565b949350505050565b81511561023c5781518083602001fd5b61013a8160201c565b634e487b7160e01b600052604160045260246000fd5b60005b8381101561027657818101518382015260200161025e565b50506000910152565b6000806040838503121561029257600080fd5b82516001600160a01b03811681146102a957600080fd5b60208401519092506001600160401b03808211156102c657600080fd5b818501915085601f8301126102da57600080fd5b8151818111156102ec576102ec610245565b604051601f8201601f19908116603f0116810190838211818310171561031457610314610245565b8160405282815288602084870101111561032d57600080fd5b61033e83602083016020880161025b565b80955050505050509250929050565b6000825161035f81846020870161025b565b9190910192915050565b60c3806103776000396000f3fe6080604052600a600c565b005b601860146033565b606a565b565b604051630a12f52160e11b815260040160405180910390fd5b600060657f360894a13ba1a3210667c828492db98dca3e2076cc3735a920a3ca505d382bbc546001600160a01b031690565b905090565b3660008037600080366000845af43d6000803e8080156088573d6000f35b3d6000fdfea2646970667358221220fc7b4fc8c694b696f29c3af3f8200efed559ce1745b32cfefa09271c4f0cb2c364736f6c63430008140033a2646970667358221220f8933a86971b92a98752cbdbfc917f284091eb3bc420e416023d3656f300f71e64736f6c6343000814003360e0604052306080523480156200001557600080fd5b50604051620029c8380380620029c88339810160408190526200003891620000fa565b6001600160a01b03821660a052816200005062000064565b506001600160a01b031660c0525062000139565b600054610100900460ff16156200008d5760405162dc149f60e41b815260040160405180910390fd5b60005460ff90811614620000df576000805460ff191660ff9081179091556040519081527f7f26b83ff96e1f2b6a682f133852f6798a09c465da95921460cefb38474024989060200160405180910390a15b565b6001600160a01b0381168114620000f757600080fd5b50565b600080604083850312156200010e57600080fd5b82516200011b81620000e1565b60208401519092506200012e81620000e1565b809150509250929050565b60805160a05160c051612804620001c4600039600081816104b001526111aa015260008181610394015281816108940152818161091501528181610ce401528181610e4c015281816112530152818161141e0152818161155a015261160501526000818161066001528181610689015281816109a7015281816109d00152610ba001526128046000f3fe60806040526004361061014e5760003560e01c806352d1902d116100b6578063c399ec881161006f578063c399ec8814610407578063c4d66de81461041c578063d087d2881461043c578063e198932614610451578063f23a6e6114610471578063f83b5dce1461049e57600080fd5b806352d1902d146103125780635a3093e4146103275780638da5cb5b14610347578063b0d691fe14610385578063b61d27f6146103b8578063bc197c81146103d857600080fd5b80633a871cdd116101085780633a871cdd1461025b5780633ef6ada1146102895780634a58db19146102a95780634d44560d146102b15780634f1ef286146102d15780635221bd43146102e457600080fd5b806223de291461015a57806301ffc9a714610181578063150b7a02146101b65780631626ba7e146101fb57806318dfb3c71461021b5780633659cfe61461023b57600080fd5b3661015557005b600080fd5b34801561016657600080fd5b5061017f610175366004611b8f565b5050505050505050565b005b34801561018d57600080fd5b506101a161019c366004611c3f565b6104d2565b60405190151581526020015b60405180910390f35b3480156101c257600080fd5b506101e26101d1366004611c69565b630a85bd0160e11b95945050505050565b6040516001600160e01b031990911681526020016101ad565b34801561020757600080fd5b506101e2610216366004611d9e565b610524565b34801561022757600080fd5b5061017f610236366004611e28565b610555565b34801561024757600080fd5b5061017f610256366004611e93565b610655565b34801561026757600080fd5b5061027b610276366004611eb0565b610722565b6040519081526020016101ad565b34801561029557600080fd5b5061017f6102a4366004611f72565b610748565b61017f610892565b3480156102bd57600080fd5b5061017f6102cc366004611ff9565b61090b565b61017f6102df366004612025565b61099c565b3480156102f057600080fd5b506103046102ff36600461205e565b610a5a565b6040516101ad9291906120e2565b34801561031e57600080fd5b5061027b610b93565b34801561033357600080fd5b5061017f610342366004612110565b610bf1565b34801561035357600080fd5b5060005461036d906201000090046001600160a01b031681565b6040516001600160a01b0390911681526020016101ad565b34801561039157600080fd5b507f000000000000000000000000000000000000000000000000000000000000000061036d565b3480156103c457600080fd5b5061017f6103d3366004612184565b610c75565b3480156103e457600080fd5b506101e26103f33660046121d3565b63bc197c8160e01b98975050505050505050565b34801561041357600080fd5b5061027b610cc4565b34801561042857600080fd5b5061017f610437366004611e93565b610d55565b34801561044857600080fd5b5061027b610e25565b34801561045d57600080fd5b5061027b61046c366004612270565b610e7b565b34801561047d57600080fd5b506101e261048c3660046122b4565b63f23a6e6160e01b9695505050505050565b3480156104aa57600080fd5b5061036d7f000000000000000000000000000000000000000000000000000000000000000081565b60006001600160e01b03198216630a85bd0160e11b148061050357506001600160e01b03198216630271189760e51b145b8061051e57506001600160e01b031982166301ffc9a760e01b145b92915050565b60006105308284610e7b565b6000036105455750630b135d3f60e11b61051e565b506001600160e01b031992915050565b61055d611248565b8281146105a75760405162461bcd60e51b815260206004820152601360248201527277726f6e67206172726179206c656e6774687360681b60448201526064015b60405180910390fd5b60005b8381101561064e5761063c8585838181106105c7576105c761232f565b90506020020160208101906105dc9190611e93565b60008585858181106105f0576105f061232f565b90506020028101906106029190612345565b8080601f0160208091040260200160405190810160405280939291908181526020018383808284376000920191909152506112dd92505050565b80610646816123a1565b9150506105aa565b5050505050565b306001600160a01b037f00000000000000000000000000000000000000000000000000000000000000001614806106dc57507f00000000000000000000000000000000000000000000000000000000000000006001600160a01b03166106d06000805160206127af833981519152546001600160a01b031690565b6001600160a01b031614155b156106fa5760405163703e46dd60e11b815260040160405180910390fd5b6107038161134d565b6040805160008082526020820190925261071f91839190611355565b50565b600061072c611413565b610736848461148b565b9050610741826114da565b9392505050565b600054610100900460ff16158080156107685750600054600160ff909116105b1580156107865750303b158015610784575060005460ff166001145b155b156107a35760405162dc149f60e41b815260040160405180910390fd5b6000805460ff1916600117905580156107c6576000805461ff0019166101001790555b6107cf85611527565b6040518060600160405280858152602001848152602001838152506001846040516107fa91906123ba565b90815260405190819003602001902081516108189082906002611adf565b506020820151600282019061082d9082612456565b50604082015160038201906108429082612456565b50905050801561064e576000805461ff0019169055604051600181527f7f26b83ff96e1f2b6a682f133852f6798a09c465da95921460cefb38474024989060200160405180910390a15050505050565b7f000000000000000000000000000000000000000000000000000000000000000060405163b760faf960e01b81523060048201526001600160a01b03919091169063b760faf99034906024016000604051808303818588803b1580156108f757600080fd5b505af115801561064e573d6000803e3d6000fd5b6109136115a3565b7f000000000000000000000000000000000000000000000000000000000000000060405163040b850f60e31b81526001600160a01b03848116600483015260248201849052919091169063205c287890604401600060405180830381600087803b15801561098057600080fd5b505af1158015610994573d6000803e3d6000fd5b505050505050565b306001600160a01b037f0000000000000000000000000000000000000000000000000000000000000000161480610a2357507f00000000000000000000000000000000000000000000000000000000000000006001600160a01b0316610a176000805160206127af833981519152546001600160a01b031690565b6001600160a01b031614155b15610a415760405163703e46dd60e11b815260040160405180910390fd5b610a4a8261134d565b610a5682826001611355565b5050565b80516020818301810180516001825292820191909301209152600281018054610a82906123d6565b80601f0160208091040260200160405190810160405280929190818152602001828054610aae906123d6565b8015610afb5780601f10610ad057610100808354040283529160200191610afb565b820191906000526020600020905b815481529060010190602001808311610ade57829003601f168201915b505050505090806003018054610b10906123d6565b80601f0160208091040260200160405190810160405280929190818152602001828054610b3c906123d6565b8015610b895780601f10610b5e57610100808354040283529160200191610b89565b820191906000526020600020905b815481529060010190602001808311610b6c57829003601f168201915b5050505050905082565b6000306001600160a01b037f00000000000000000000000000000000000000000000000000000000000000001614610bde5760405163703e46dd60e11b815260040160405180910390fd5b506000805160206127af83398151915290565b604051806060016040528082815260200184815260200183815250600184604051610c1c91906123ba565b9081526040519081900360200190208151610c3a9082906002611adf565b5060208201516002820190610c4f9082612456565b5060408201516003820190610c649082612456565b50905050610c706115fa565b505050565b610c7d611248565b610cbe848484848080601f0160208091040260200160405190810160405280939291908181526020018383808284376000920191909152506112dd92505050565b50505050565b6040516370a0823160e01b81523060048201526000906001600160a01b037f000000000000000000000000000000000000000000000000000000000000000016906370a08231906024015b602060405180830381865afa158015610d2c573d6000803e3d6000fd5b505050506040513d601f19601f82011682018060405250810190610d509190612515565b905090565b600054610100900460ff1615808015610d755750600054600160ff909116105b158015610d935750303b158015610d91575060005460ff166001145b155b15610db05760405162dc149f60e41b815260040160405180910390fd5b6000805460ff191660011790558015610dd3576000805461ff0019166101001790555b610ddc82611527565b8015610a56576000805461ff0019169055604051600181527f7f26b83ff96e1f2b6a682f133852f6798a09c465da95921460cefb38474024989060200160405180910390a15050565b604051631aab3f0d60e11b8152306004820152600060248201819052906001600160a01b037f000000000000000000000000000000000000000000000000000000000000000016906335567e1a90604401610d0f565b6000606080606060008087806020019051810190610e99919061257e565b60405194995092975090955093509150600090600190610eba9088906123ba565b9081526040805191829003602001822060a0830190915281606081018260028282826020028201915b815481526020019060010190808311610ee35750505050508152602001600282018054610f0f906123d6565b80601f0160208091040260200160405190810160405280929190818152602001828054610f3b906123d6565b8015610f885780601f10610f5d57610100808354040283529160200191610f88565b820191906000526020600020905b815481529060010190602001808311610f6b57829003601f168201915b50505050508152602001600382018054610fa1906123d6565b80601f0160208091040260200160405190810160405280929190818152602001828054610fcd906123d6565b801561101a5780601f10610fef5761010080835404028352916020019161101a565b820191906000526020600020905b815481529060010190602001808311610ffd57829003601f168201915b505050505081525050905060006040518060a001604052808681526020016040518060400160405280600c81526020016b1dd958985d5d1a1b8b99d95d60a21b81525081526020018a60405160200161107591815260200190565b60405160208183030381529060405281526020018360400151815260200160001515815250905060006110a7826116a7565b905060006002886002896040516110be91906123ba565b602060405180830381855afa1580156110db573d6000803e3d6000fd5b5050506040513d601f19601f820116820180604052508101906110fe9190612515565b60405160200161110f92919061262f565b60408051601f1981840301815290829052611129916123ba565b602060405180830381855afa158015611146573d6000803e3d6000fd5b5050506040513d601f19601f820116820180604052508101906111699190612515565b84518051602090910151604051632155364b60e21b8152600481019290925260248201526044810182905260648101889052608481018790529091506000907f00000000000000000000000000000000000000000000000000000000000000006001600160a01b031690638554d92c9060a401602060405180830381865afa1580156111f9573d6000803e3d6000fd5b505050506040513d601f19601f8201168201806040525081019061121d9190612651565b90508280156112295750805b611234576001611237565b60005b9d9c50505050505050505050505050565b336001600160a01b037f000000000000000000000000000000000000000000000000000000000000000016148061128f57506000546201000090046001600160a01b031633145b6112db5760405162461bcd60e51b815260206004820181905260248201527f6163636f756e743a206e6f74204f776e6572206f7220456e747279506f696e74604482015260640161059e565b565b600080846001600160a01b031684846040516112f991906123ba565b60006040518083038185875af1925050503d8060008114611336576040519150601f19603f3d011682016040523d82523d6000602084013e61133b565b606091505b50915091508161064e57805160208201fd5b61071f6115a3565b826001600160a01b03166352d1902d6040518163ffffffff1660e01b8152600401602060405180830381865afa9250505080156113af575060408051601f3d908101601f191682019092526113ac91810190612515565b60015b6113d757604051634c9c8ce360e01b81526001600160a01b038416600482015260240161059e565b6000805160206127af833981519152811461140857604051632a87526960e21b81526004810182905260240161059e565b610cbe8484846117dd565b336001600160a01b037f000000000000000000000000000000000000000000000000000000000000000016146112db5760405162461bcd60e51b815260206004820152601c60248201527f6163636f756e743a206e6f742066726f6d20456e747279506f696e7400000000604482015260640161059e565b600061074161149e610140850185612345565b8080601f016020809104026020016040519081016040528093929190818152602001838380828437600092019190915250869250610e7b915050565b801561071f57604051600090339060001990849084818181858888f193505050503d806000811461064e576040519150601f19603f3d011682016040523d82523d6000602084013e61064e565b6000805462010000600160b01b031916620100006001600160a01b038481168202929092178084556040519190048216927f0000000000000000000000000000000000000000000000000000000000000000909216917f47e55c76e7a6f1fd8996a1da8008c1ea29699cca35e7bcd057f2dec313b6e5de91a350565b6000546201000090046001600160a01b03163314806115c157503330145b6112db5760405162461bcd60e51b815260206004820152600a60248201526937b7363c9037bbb732b960b11b604482015260640161059e565b336001600160a01b037f000000000000000000000000000000000000000000000000000000000000000016148061164157506000546201000090046001600160a01b031633145b8061164b57503330145b6112db5760405162461bcd60e51b815260206004820152602760248201527f6163636f756e743a206e6f74204f776e65722c20456e747279506f696e742c206044820152666f72207468697360c81b606482015260840161059e565b60008082602001516116bc8460400151611802565b84606001516040516020016116d393929190612673565b60408051601f1981840301815291905280518451519192509081109081611706578451516117039060019061270f565b90505b600160005b82811015611776578481815181106117255761172561232f565b0160200151875180516001600160f81b0319909216918390811061174b5761174b61232f565b01602001516001600160f81b0319161461176457600091505b8061176e816123a1565b91505061170b565b5060008660000151838151811061178f5761178f61232f565b01602001516001600160f81b0319169050607d60f81b8114806117bf5750600b60fa1b6001600160f81b03198216145b6117c857600091505b8380156117d25750815b979650505050505050565b6117e68361191e565b6000825111806117f35750805b15610c7057610cbe838361195e565b6060815160000361182157505060408051602081019091526000815290565b600060405180606001604052806040815260200161276f60409139905060006006845160086118509190612722565b61185b906005612739565b611865919061274c565b6001600160401b0381111561187c5761187c611cdb565b6040519080825280601f01601f1916602001820160405280156118a6576020820181803683370190505b509050600182016020820185865187015b80821015611912576003820191508151603f8160121c168501518453600184019350603f81600c1c168501518453600184019350603f8160061c168501518453600184019350603f81168501518453506001830192506118b7565b50929695505050505050565b6119278161196d565b6040516001600160a01b038216907fbc7cd75a20ee27fd9adebab32041f755214dbc6bffa90cc0225b39da2e5c2d3b90600090a250565b606061074183836119d26119eb565b806001600160a01b03163b6000036119a357604051634c9c8ce360e01b81526001600160a01b038216600482015260240161059e565b6000805160206127af83398151915280546001600160a01b0319166001600160a01b0392909216919091179055565b604051630a12f52160e11b815260040160405180910390fd5b6060600080856001600160a01b031685604051611a0891906123ba565b600060405180830381855af49150503d8060008114611a43576040519150601f19603f3d011682016040523d82523d6000602084013e611a48565b606091505b5091509150611a5986838387611a63565b9695505050505050565b60608315611ab1578251600003611aaa57846001600160a01b03163b600003611aaa57604051639996b31560e01b81526001600160a01b038616600482015260240161059e565b5081611abb565b611abb8383611ac3565b949350505050565b815115611ad35781518083602001fd5b6119d28163ffffffff16565b8260028101928215611b0d579160200282015b82811115611b0d578251825591602001919060010190611af2565b50611b19929150611b1d565b5090565b5b80821115611b195760008155600101611b1e565b6001600160a01b038116811461071f57600080fd5b60008083601f840112611b5957600080fd5b5081356001600160401b03811115611b7057600080fd5b602083019150836020828501011115611b8857600080fd5b9250929050565b60008060008060008060008060c0898b031215611bab57600080fd5b8835611bb681611b32565b97506020890135611bc681611b32565b96506040890135611bd681611b32565b95506060890135945060808901356001600160401b0380821115611bf957600080fd5b611c058c838d01611b47565b909650945060a08b0135915080821115611c1e57600080fd5b50611c2b8b828c01611b47565b999c989b5096995094979396929594505050565b600060208284031215611c5157600080fd5b81356001600160e01b03198116811461074157600080fd5b600080600080600060808688031215611c8157600080fd5b8535611c8c81611b32565b94506020860135611c9c81611b32565b93506040860135925060608601356001600160401b03811115611cbe57600080fd5b611cca88828901611b47565b969995985093965092949392505050565b634e487b7160e01b600052604160045260246000fd5b604051601f8201601f191681016001600160401b0381118282101715611d1957611d19611cdb565b604052919050565b60006001600160401b03821115611d3a57611d3a611cdb565b50601f01601f191660200190565b600082601f830112611d5957600080fd5b8135611d6c611d6782611d21565b611cf1565b818152846020838601011115611d8157600080fd5b816020850160208301376000918101602001919091529392505050565b60008060408385031215611db157600080fd5b8235915060208301356001600160401b03811115611dce57600080fd5b611dda85828601611d48565b9150509250929050565b60008083601f840112611df657600080fd5b5081356001600160401b03811115611e0d57600080fd5b6020830191508360208260051b8501011115611b8857600080fd5b60008060008060408587031215611e3e57600080fd5b84356001600160401b0380821115611e5557600080fd5b611e6188838901611de4565b90965094506020870135915080821115611e7a57600080fd5b50611e8787828801611de4565b95989497509550505050565b600060208284031215611ea557600080fd5b813561074181611b32565b600080600060608486031215611ec557600080fd5b83356001600160401b03811115611edb57600080fd5b84016101608187031215611eee57600080fd5b95602085013595506040909401359392505050565b600082601f830112611f1457600080fd5b604051604081018181106001600160401b0382111715611f3657611f36611cdb565b8060405250806040840185811115611f4d57600080fd5b845b81811015611f67578035835260209283019201611f4f565b509195945050505050565b60008060008060a08587031215611f8857600080fd5b8435611f9381611b32565b9350611fa28660208701611f03565b925060608501356001600160401b0380821115611fbe57600080fd5b611fca88838901611d48565b93506080870135915080821115611fe057600080fd5b50611fed87828801611d48565b91505092959194509250565b6000806040838503121561200c57600080fd5b823561201781611b32565b946020939093013593505050565b6000806040838503121561203857600080fd5b823561204381611b32565b915060208301356001600160401b03811115611dce57600080fd5b60006020828403121561207057600080fd5b81356001600160401b0381111561208657600080fd5b611abb84828501611d48565b60005b838110156120ad578181015183820152602001612095565b50506000910152565b600081518084526120ce816020860160208601612092565b601f01601f19169290920160200192915050565b6040815260006120f560408301856120b6565b828103602084015261210781856120b6565b95945050505050565b60008060006080848603121561212557600080fd5b83356001600160401b038082111561213c57600080fd5b61214887838801611d48565b9450602086013591508082111561215e57600080fd5b5061216b86828701611d48565b92505061217b8560408601611f03565b90509250925092565b6000806000806060858703121561219a57600080fd5b84356121a581611b32565b93506020850135925060408501356001600160401b038111156121c757600080fd5b611e8787828801611b47565b60008060008060008060008060a0898b0312156121ef57600080fd5b88356121fa81611b32565b9750602089013561220a81611b32565b965060408901356001600160401b038082111561222657600080fd5b6122328c838d01611de4565b909850965060608b013591508082111561224b57600080fd5b6122578c838d01611de4565b909650945060808b0135915080821115611c1e57600080fd5b6000806040838503121561228357600080fd5b82356001600160401b0381111561229957600080fd5b6122a585828601611d48565b95602094909401359450505050565b60008060008060008060a087890312156122cd57600080fd5b86356122d881611b32565b955060208701356122e881611b32565b9450604087013593506060870135925060808701356001600160401b0381111561231157600080fd5b61231d89828a01611b47565b979a9699509497509295939492505050565b634e487b7160e01b600052603260045260246000fd5b6000808335601e1984360301811261235c57600080fd5b8301803591506001600160401b0382111561237657600080fd5b602001915036819003821315611b8857600080fd5b634e487b7160e01b600052601160045260246000fd5b6000600182016123b3576123b361238b565b5060010190565b600082516123cc818460208701612092565b9190910192915050565b600181811c908216806123ea57607f821691505b60208210810361240a57634e487b7160e01b600052602260045260246000fd5b50919050565b601f821115610c7057600081815260208120601f850160051c810160208610156124375750805b601f850160051c820191505b8181101561099457828155600101612443565b81516001600160401b0381111561246f5761246f611cdb565b6124838161247d84546123d6565b84612410565b602080601f8311600181146124b857600084156124a05750858301515b600019600386901b1c1916600185901b178555610994565b600085815260208120601f198616915b828110156124e7578886015182559484019460019091019084016124c8565b50858210156125055787850151600019600388901b60f8161c191681555b5050505050600190811b01905550565b60006020828403121561252757600080fd5b5051919050565b600061253c611d6784611d21565b905082815283838301111561255057600080fd5b610741836020830184612092565b600082601f83011261256f57600080fd5b6107418383516020850161252e565b600080600080600060a0868803121561259657600080fd5b85516001600160401b03808211156125ad57600080fd5b818801915088601f8301126125c157600080fd5b6125d08983516020850161252e565b965060208801519150808211156125e657600080fd5b6125f289838a0161255e565b9550604088015191508082111561260857600080fd5b506126158882890161255e565b606088015160809098015196999598509695949350505050565b60008351612641818460208801612092565b9190910191825250602001919050565b60006020828403121561266357600080fd5b8151801515811461074157600080fd5b683d913a3cb832911d1160b91b81528351600090612698816009850160208901612092565b6e11161131b430b63632b733b2911d1160891b60099184019182015284516126c7816018840160208901612092565b6b11161137b934b3b4b7111d1160a11b6018929091019182015283516126f4816024840160208801612092565b601160f91b6024929091019182015260250195945050505050565b8181038181111561051e5761051e61238b565b808202811582820484141761051e5761051e61238b565b8082018082111561051e5761051e61238b565b60008261276957634e487b7160e01b600052601260045260246000fd5b50049056fe4142434445464748494a4b4c4d4e4f505152535455565758595a6162636465666768696a6b6c6d6e6f707172737475767778797a303132333435363738392d5f360894a13ba1a3210667c828492db98dca3e2076cc3735a920a3ca505d382bbca2646970667358221220a1f5134309e5120647124930b9143a1eda5855043934de8609fdbb9724891b5764736f6c63430008140033",
    "linkReferences": {}
  }
}