{
  "abi": [
    {
      "inputs": [
        {
          "internalType": "bool",
          "name": "startPaused",
          "type": "bool"
        }
      ],
      "stateMutability": "nonpayable",
      "type": "constructor"
    },
    {
      "inputs": [
        {
          "internalType": "address",
          "name": "sender",
          "type": "address"
        },
        {
          "internalType": "uint256",
          "name": "balance",
          "type": "uint256"
        },
        {
          "internalType": "uint256",
          "name": "needed",
          "type": "uint256"
        },
        {
          "internalType": "uint256",
          "name": "tokenId",
          "type": "uint256"
        }
      ],
      "name": "ERC1155InsufficientBalance",
      "type": "error"
    },
    {
      "inputs": [
        {
          "internalType": "address",
          "name": "approver",
          "type": "address"
        }
      ],
      "name": "ERC1155InvalidApprover",
      "type": "error"
    },
    {
      "inputs": [
        {
          "internalType": "uint256",
          "name": "idsLength",
          "type": "uint256"
        },
        {
          "internalType": "uint256",
          "name": "valuesLength",
          "type": "uint256"
        }
      ],
      "name": "ERC1155InvalidArrayLength",
      "type": "error"
    },
    {
      "inputs": [
        {
          "internalType": "address",
          "name": "operator",
          "type": "address"
        }
      ],
      "name": "ERC1155InvalidOperator",
      "type": "error"
    },
    {
      "inputs": [
        {
          "internalType": "address",
          "name": "receiver",
          "type": "address"
        }
      ],
      "name": "ERC1155InvalidReceiver",
      "type": "error"
    },
    {
      "inputs": [
        {
          "internalType": "address",
          "name": "sender",
          "type": "address"
        }
      ],
      "name": "ERC1155InvalidSender",
      "type": "error"
    },
    {
      "inputs": [
        {
          "internalType": "address",
          "name": "operator",
          "type": "address"
        },
        {
          "internalType": "address",
          "name": "owner",
          "type": "address"
        }
      ],
      "name": "ERC1155MissingApprovalForAll",
      "type": "error"
    },
    {
      "inputs": [],
      "name": "EnforcedPause",
      "type": "error"
    },
    {
      "inputs": [],
      "name": "ExpectedPause",
      "type": "error"
    },
    {
      "inputs": [
        {
          "internalType": "address",
          "name": "owner",
          "type": "address"
        }
      ],
      "name": "OwnableInvalidOwner",
      "type": "error"
    },
    {
      "inputs": [
        {
          "internalType": "address",
          "name": "account",
          "type": "address"
        }
      ],
      "name": "OwnableUnauthorizedAccount",
      "type": "error"
    },
    {
      "inputs": [],
      "name": "ReentrancyGuardReentrantCall",
      "type": "error"
    },
    {
      "anonymous": false,
      "inputs": [
        {
          "indexed": true,
          "internalType": "address",
          "name": "account",
          "type": "address"
        },
        {
          "indexed": true,
          "internalType": "address",
          "name": "operator",
          "type": "address"
        },
        {
          "indexed": false,
          "internalType": "bool",
          "name": "approved",
          "type": "bool"
        }
      ],
      "name": "ApprovalForAll",
      "type": "event"
    },
    {
      "anonymous": false,
      "inputs": [
        {
          "indexed": true,
          "internalType": "address",
          "name": "previousOwner",
          "type": "address"
        },
        {
          "indexed": true,
          "internalType": "address",
          "name": "newOwner",
          "type": "address"
        }
      ],
      "name": "OwnershipTransferred",
      "type": "event"
    },
    {
      "anonymous": false,
      "inputs": [
        {
          "indexed": false,
          "internalType": "address",
          "name": "account",
          "type": "address"
        }
      ],
      "name": "Paused",
      "type": "event"
    },
    {
      "anonymous": false,
      "inputs": [
        {
          "indexed": true,
          "internalType": "uint256",
          "name": "badgeId",
          "type": "uint256"
        },
        {
          "components": [
            {
              "internalType": "string",
              "name": "uri",
              "type": "string"
            },
            {
              "internalType": "bool",
              "name": "isMintPassApplicable",
              "type": "bool"
            },
            {
              "internalType": "bool",
              "name": "isSoulbound",
              "type": "bool"
            }
          ],
          "indexed": false,
          "internalType": "struct AlchemyBadge",
          "name": "spec",
          "type": "tuple"
        }
      ],
      "name": "SetBadgeSpec",
      "type": "event"
    },
    {
      "anonymous": false,
      "inputs": [
        {
          "indexed": true,
          "internalType": "address",
          "name": "addr",
          "type": "address"
        },
        {
          "indexed": false,
          "internalType": "bool",
          "name": "isExecutor",
          "type": "bool"
        }
      ],
      "name": "SetExecutor",
      "type": "event"
    },
    {
      "anonymous": false,
      "inputs": [
        {
          "indexed": false,
          "internalType": "uint256",
          "name": "badgeId",
          "type": "uint256"
        }
      ],
      "name": "SetMintPass",
      "type": "event"
    },
    {
      "anonymous": false,
      "inputs": [
        {
          "indexed": true,
          "internalType": "address",
          "name": "operator",
          "type": "address"
        },
        {
          "indexed": true,
          "internalType": "address",
          "name": "from",
          "type": "address"
        },
        {
          "indexed": true,
          "internalType": "address",
          "name": "to",
          "type": "address"
        },
        {
          "indexed": false,
          "internalType": "uint256[]",
          "name": "ids",
          "type": "uint256[]"
        },
        {
          "indexed": false,
          "internalType": "uint256[]",
          "name": "values",
          "type": "uint256[]"
        }
      ],
      "name": "TransferBatch",
      "type": "event"
    },
    {
      "anonymous": false,
      "inputs": [
        {
          "indexed": true,
          "internalType": "address",
          "name": "operator",
          "type": "address"
        },
        {
          "indexed": true,
          "internalType": "address",
          "name": "from",
          "type": "address"
        },
        {
          "indexed": true,
          "internalType": "address",
          "name": "to",
          "type": "address"
        },
        {
          "indexed": false,
          "internalType": "uint256",
          "name": "id",
          "type": "uint256"
        },
        {
          "indexed": false,
          "internalType": "uint256",
          "name": "value",
          "type": "uint256"
        }
      ],
      "name": "TransferSingle",
      "type": "event"
    },
    {
      "anonymous": false,
      "inputs": [
        {
          "indexed": false,
          "internalType": "string",
          "name": "value",
          "type": "string"
        },
        {
          "indexed": true,
          "internalType": "uint256",
          "name": "id",
          "type": "uint256"
        }
      ],
      "name": "URI",
      "type": "event"
    },
    {
      "anonymous": false,
      "inputs": [
        {
          "indexed": false,
          "internalType": "address",
          "name": "account",
          "type": "address"
        }
      ],
      "name": "Unpaused",
      "type": "event"
    },
    {
      "inputs": [],
      "name": "badgeCount",
      "outputs": [
        {
          "internalType": "uint256",
          "name": "",
          "type": "uint256"
        }
      ],
      "stateMutability": "view",
      "type": "function"
    },
    {
      "inputs": [
        {
          "internalType": "uint256",
          "name": "",
          "type": "uint256"
        }
      ],
      "name": "badgeSpecs",
      "outputs": [
        {
          "internalType": "string",
          "name": "uri",
          "type": "string"
        },
        {
          "internalType": "bool",
          "name": "isMintPassApplicable",
          "type": "bool"
        },
        {
          "internalType": "bool",
          "name": "isSoulbound",
          "type": "bool"
        }
      ],
      "stateMutability": "view",
      "type": "function"
    },
    {
      "inputs": [
        {
          "internalType": "address",
          "name": "account",
          "type": "address"
        },
        {
          "internalType": "uint256",
          "name": "id",
          "type": "uint256"
        }
      ],
      "name": "balanceOf",
      "outputs": [
        {
          "internalType": "uint256",
          "name": "",
          "type": "uint256"
        }
      ],
      "stateMutability": "view",
      "type": "function"
    },
    {
      "inputs": [
        {
          "internalType": "address[]",
          "name": "accounts",
          "type": "address[]"
        },
        {
          "internalType": "uint256[]",
          "name": "ids",
          "type": "uint256[]"
        }
      ],
      "name": "balanceOfBatch",
      "outputs": [
        {
          "internalType": "uint256[]",
          "name": "",
          "type": "uint256[]"
        }
      ],
      "stateMutability": "view",
      "type": "function"
    },
    {
      "inputs": [
        {
          "internalType": "address",
          "name": "account",
          "type": "address"
        },
        {
          "internalType": "uint256",
          "name": "id",
          "type": "uint256"
        },
        {
          "internalType": "uint256",
          "name": "value",
          "type": "uint256"
        }
      ],
      "name": "burn",
      "outputs": [],
      "stateMutability": "nonpayable",
      "type": "function"
    },
    {
      "inputs": [
        {
          "internalType": "address",
          "name": "account",
          "type": "address"
        },
        {
          "internalType": "uint256[]",
          "name": "ids",
          "type": "uint256[]"
        },
        {
          "internalType": "uint256[]",
          "name": "values",
          "type": "uint256[]"
        }
      ],
      "name": "burnBatch",
      "outputs": [],
      "stateMutability": "nonpayable",
      "type": "function"
    },
    {
      "inputs": [
        {
          "internalType": "uint256",
          "name": "id",
          "type": "uint256"
        }
      ],
      "name": "exists",
      "outputs": [
        {
          "internalType": "bool",
          "name": "",
          "type": "bool"
        }
      ],
      "stateMutability": "view",
      "type": "function"
    },
    {
      "inputs": [
        {
          "internalType": "uint256",
          "name": "badgeId",
          "type": "uint256"
        }
      ],
      "name": "getBadgeSpec",
      "outputs": [
        {
          "components": [
            {
              "internalType": "string",
              "name": "uri",
              "type": "string"
            },
            {
              "internalType": "bool",
              "name": "isMintPassApplicable",
              "type": "bool"
            },
            {
              "internalType": "bool",
              "name": "isSoulbound",
              "type": "bool"
            }
          ],
          "internalType": "struct AlchemyBadge",
          "name": "",
          "type": "tuple"
        }
      ],
      "stateMutability": "view",
      "type": "function"
    },
    {
      "inputs": [],
      "name": "incrementBadgeCounter",
      "outputs": [],
      "stateMutability": "nonpayable",
      "type": "function"
    },
    {
      "inputs": [
        {
          "internalType": "address",
          "name": "account",
          "type": "address"
        },
        {
          "internalType": "address",
          "name": "operator",
          "type": "address"
        }
      ],
      "name": "isApprovedForAll",
      "outputs": [
        {
          "internalType": "bool",
          "name": "",
          "type": "bool"
        }
      ],
      "stateMutability": "view",
      "type": "function"
    },
    {
      "inputs": [
        {
          "internalType": "address",
          "name": "account",
          "type": "address"
        }
      ],
      "name": "isExecutor",
      "outputs": [
        {
          "internalType": "bool",
          "name": "",
          "type": "bool"
        }
      ],
      "stateMutability": "view",
      "type": "function"
    },
    {
      "inputs": [
        {
          "internalType": "address",
          "name": "to",
          "type": "address"
        },
        {
          "internalType": "uint256",
          "name": "badgeId",
          "type": "uint256"
        },
        {
          "internalType": "uint256",
          "name": "amount",
          "type": "uint256"
        },
        {
          "internalType": "bytes",
          "name": "data",
          "type": "bytes"
        }
      ],
      "name": "mintBadge",
      "outputs": [],
      "stateMutability": "nonpayable",
      "type": "function"
    },
    {
      "inputs": [
        {
          "internalType": "address",
          "name": "to",
          "type": "address"
        },
        {
          "internalType": "uint256[]",
          "name": "badgeIds",
          "type": "uint256[]"
        },
        {
          "internalType": "uint256[]",
          "name": "amounts",
          "type": "uint256[]"
        },
        {
          "internalType": "bytes",
          "name": "data",
          "type": "bytes"
        }
      ],
      "name": "mintBadgesBatch",
      "outputs": [],
      "stateMutability": "nonpayable",
      "type": "function"
    },
    {
      "inputs": [],
      "name": "mintPassBadgeId",
      "outputs": [
        {
          "internalType": "uint256",
          "name": "",
          "type": "uint256"
        }
      ],
      "stateMutability": "view",
      "type": "function"
    },
    {
      "inputs": [
        {
          "internalType": "address",
          "name": "",
          "type": "address"
        },
        {
          "internalType": "address",
          "name": "",
          "type": "address"
        },
        {
          "internalType": "uint256[]",
          "name": "",
          "type": "uint256[]"
        },
        {
          "internalType": "uint256[]",
          "name": "",
          "type": "uint256[]"
        },
        {
          "internalType": "bytes",
          "name": "",
          "type": "bytes"
        }
      ],
      "name": "onERC1155BatchReceived",
      "outputs": [
        {
          "internalType": "bytes4",
          "name": "",
          "type": "bytes4"
        }
      ],
      "stateMutability": "nonpayable",
      "type": "function"
    },
    {
      "inputs": [
        {
          "internalType": "address",
          "name": "",
          "type": "address"
        },
        {
          "internalType": "address",
          "name": "",
          "type": "address"
        },
        {
          "internalType": "uint256",
          "name": "",
          "type": "uint256"
        },
        {
          "internalType": "uint256",
          "name": "",
          "type": "uint256"
        },
        {
          "internalType": "bytes",
          "name": "",
          "type": "bytes"
        }
      ],
      "name": "onERC1155Received",
      "outputs": [
        {
          "internalType": "bytes4",
          "name": "",
          "type": "bytes4"
        }
      ],
      "stateMutability": "nonpayable",
      "type": "function"
    },
    {
      "inputs": [],
      "name": "owner",
      "outputs": [
        {
          "internalType": "address",
          "name": "",
          "type": "address"
        }
      ],
      "stateMutability": "view",
      "type": "function"
    },
    {
      "inputs": [],
      "name": "pause",
      "outputs": [],
      "stateMutability": "nonpayable",
      "type": "function"
    },
    {
      "inputs": [],
      "name": "paused",
      "outputs": [
        {
          "internalType": "bool",
          "name": "",
          "type": "bool"
        }
      ],
      "stateMutability": "view",
      "type": "function"
    },
    {
      "inputs": [],
      "name": "renounceOwnership",
      "outputs": [],
      "stateMutability": "nonpayable",
      "type": "function"
    },
    {
      "inputs": [
        {
          "internalType": "address",
          "name": "from",
          "type": "address"
        },
        {
          "internalType": "address",
          "name": "to",
          "type": "address"
        },
        {
          "internalType": "uint256[]",
          "name": "ids",
          "type": "uint256[]"
        },
        {
          "internalType": "uint256[]",
          "name": "values",
          "type": "uint256[]"
        },
        {
          "internalType": "bytes",
          "name": "data",
          "type": "bytes"
        }
      ],
      "name": "safeBatchTransferFrom",
      "outputs": [],
      "stateMutability": "nonpayable",
      "type": "function"
    },
    {
      "inputs": [
        {
          "internalType": "address",
          "name": "from",
          "type": "address"
        },
        {
          "internalType": "address",
          "name": "to",
          "type": "address"
        },
        {
          "internalType": "uint256",
          "name": "id",
          "type": "uint256"
        },
        {
          "internalType": "uint256",
          "name": "value",
          "type": "uint256"
        },
        {
          "internalType": "bytes",
          "name": "data",
          "type": "bytes"
        }
      ],
      "name": "safeTransferFrom",
      "outputs": [],
      "stateMutability": "nonpayable",
      "type": "function"
    },
    {
      "inputs": [
        {
          "internalType": "address",
          "name": "operator",
          "type": "address"
        },
        {
          "internalType": "bool",
          "name": "approved",
          "type": "bool"
        }
      ],
      "name": "setApprovalForAll",
      "outputs": [],
      "stateMutability": "nonpayable",
      "type": "function"
    },
    {
      "inputs": [
        {
          "internalType": "uint256",
          "name": "newBadgeCounter",
          "type": "uint256"
        }
      ],
      "name": "setBadgeCounter",
      "outputs": [],
      "stateMutability": "nonpayable",
      "type": "function"
    },
    {
      "inputs": [
        {
          "internalType": "uint256",
          "name": "badgeId",
          "type": "uint256"
        },
        {
          "internalType": "string",
          "name": "badgeUri",
          "type": "string"
        },
        {
          "internalType": "bool",
          "name": "isMintPassApplicable",
          "type": "bool"
        },
        {
          "internalType": "bool",
          "name": "isSoulbound",
          "type": "bool"
        }
      ],
      "name": "setBadgeSpec",
      "outputs": [],
      "stateMutability": "nonpayable",
      "type": "function"
    },
    {
      "inputs": [
        {
          "internalType": "address",
          "name": "addr",
          "type": "address"
        },
        {
          "internalType": "bool",
          "name": "_isExecutor",
          "type": "bool"
        }
      ],
      "name": "setExecutor",
      "outputs": [],
      "stateMutability": "nonpayable",
      "type": "function"
    },
    {
      "inputs": [
        {
          "internalType": "uint256",
          "name": "badgeId",
          "type": "uint256"
        }
      ],
      "name": "setMintPass",
      "outputs": [],
      "stateMutability": "nonpayable",
      "type": "function"
    },
    {
      "inputs": [
        {
          "internalType": "bytes4",
          "name": "interfaceId",
          "type": "bytes4"
        }
      ],
      "name": "supportsInterface",
      "outputs": [
        {
          "internalType": "bool",
          "name": "",
          "type": "bool"
        }
      ],
      "stateMutability": "view",
      "type": "function"
    },
    {
      "inputs": [],
      "name": "totalSupply",
      "outputs": [
        {
          "internalType": "uint256",
          "name": "",
          "type": "uint256"
        }
      ],
      "stateMutability": "view",
      "type": "function"
    },
    {
      "inputs": [
        {
          "internalType": "uint256",
          "name": "id",
          "type": "uint256"
        }
      ],
      "name": "totalSupply",
      "outputs": [
        {
          "internalType": "uint256",
          "name": "",
          "type": "uint256"
        }
      ],
      "stateMutability": "view",
      "type": "function"
    },
    {
      "inputs": [
        {
          "internalType": "address",
          "name": "newOwner",
          "type": "address"
        }
      ],
      "name": "transferOwnership",
      "outputs": [],
      "stateMutability": "nonpayable",
      "type": "function"
    },
    {
      "inputs": [],
      "name": "unpause",
      "outputs": [],
      "stateMutability": "nonpayable",
      "type": "function"
    },
    {
      "inputs": [
        {
          "internalType": "uint256",
          "name": "badgeId",
          "type": "uint256"
        }
      ],
      "name": "uri",
      "outputs": [
        {
          "internalType": "string",
          "name": "",
          "type": "string"
        }
      ],
      "stateMutability": "view",
      "type": "function"
    }
  ],
  "bytecode": {
    "object": "0x60806040523480156200001157600080fd5b5060405162002ae738038062002ae78339810160408190526200003491620001e2565b6040805160208101909152600081523390620000508162000093565b506005805460ff191690556200006681620000a5565b50600160068190556200007b903390620000ff565b80156200008c576200008c6200015e565b506200037e565b6002620000a18282620002b2565b5050565b600580546001600160a01b03838116610100818102610100600160a81b031985161790945560405193909204169182907f8be0079c531659141344cd1fd0a4f28419497f9722a3daafe3b4186f6b6457e090600090a35050565b6001600160a01b038216600081815260086020908152604091829020805460ff191685151590811790915591519182527f827c394aebf0fcbf2d4f5c0107a0031a3860ec0d5e06756e03aacccfb8d2836e910160405180910390a25050565b62000168620001bb565b6005805460ff191660011790557f62e78cea01bee320cd4e420270b5ea74000d11b0c9f74754ebdbfc544b05a2586200019e3390565b6040516001600160a01b03909116815260200160405180910390a1565b60055460ff1615620001e05760405163d93c066560e01b815260040160405180910390fd5b565b600060208284031215620001f557600080fd5b815180151581146200020657600080fd5b9392505050565b634e487b7160e01b600052604160045260246000fd5b600181811c908216806200023857607f821691505b6020821081036200025957634e487b7160e01b600052602260045260246000fd5b50919050565b601f821115620002ad57600081815260208120601f850160051c81016020861015620002885750805b601f850160051c820191505b81811015620002a95782815560010162000294565b5050505b505050565b81516001600160401b03811115620002ce57620002ce6200020d565b620002e681620002df845462000223565b846200025f565b602080601f8311600181146200031e5760008415620003055750858301515b600019600386901b1c1916600185901b178555620002a9565b600085815260208120601f198616915b828110156200034f578886015182559484019460019091019084016200032e565b50858210156200036e5787850151600019600388901b60f8161c191681555b5050505050600190811b01905550565b612759806200038e6000396000f3fe608060405234801561001057600080fd5b50600436106101fa5760003560e01c80638456cb591161011a578063debfda30116100ad578063f242432a1161007c578063f242432a14610492578063f2fde38b146104a5578063f3664dd1146104b8578063f5298aca146104da578063fda16282146104ed57600080fd5b8063debfda3014610421578063e985e9c51461044d578063f1575b6614610460578063f23a6e611461047357600080fd5b8063adc6db40116100e9578063adc6db40146103a3578063bc197c81146103b6578063bd85b039146103ee578063c45269391461040e57600080fd5b80638456cb59146103565780638da5cb5b1461035e578063a22cb46514610387578063aadd9b931461039a57600080fd5b80634e1273f4116101925780635f5c08cb116101615780635f5c08cb146103085780636b20c4541461031b578063715018a61461032e5780638220c1581461033657600080fd5b80634e1273f4146102b35780634f558e79146102d35780635b806645146102f55780635c975abb146102fd57600080fd5b80631e1bff3f116101ce5780631e1bff3f14610270578063278d22d7146102855780632eb2c2d6146102985780633f4ba83a146102ab57600080fd5b8062fdd58e146101ff57806301ffc9a7146102255780630e89341c1461024857806318160ddd14610268575b600080fd5b61021261020d366004611bb4565b6104f5565b6040519081526020015b60405180910390f35b610238610233366004611bf4565b61051d565b604051901515815260200161021c565b61025b610256366004611c18565b61056d565b60405161021c9190611c77565b600454610212565b61028361027e366004611c9a565b61063b565b005b610283610293366004611c18565b6106de565b6102836102a6366004611e10565b610760565b6102836107c7565b6102c66102c1366004611eb9565b610808565b60405161021c9190611fb3565b6102386102e1366004611c18565b600090815260036020526040902054151590565b600754610212565b60055460ff16610238565b610283610316366004611fc6565b6108dc565b610283610329366004612026565b61095c565b6102836109c0565b610349610344366004611c18565b6109d2565b60405161021c9190612099565b610283610ae5565b60055461010090046001600160a01b03166040516001600160a01b03909116815260200161021c565b610283610395366004611c9a565b610b24565b61021260095481565b6102836103b1366004611c18565b610b2f565b6103d56103c4366004611e10565b63bc197c8160e01b95945050505050565b6040516001600160e01b0319909116815260200161021c565b6102126103fc366004611c18565b60009081526003602052604090205490565b61028361041c366004612121565b610b63565b61023861042f36600461218f565b6001600160a01b031660009081526008602052604090205460ff1690565b61023861045b3660046121aa565b610c88565b61028361046e366004612218565b610cb6565b6103d56104813660046122c2565b63f23a6e6160e01b95945050505050565b6102836104a03660046122c2565b610e05565b6102836104b336600461218f565b610e64565b6104cb6104c6366004611c18565b610e9f565b60405161021c93929190612326565b6102836104e8366004612350565b610f4f565b610283610f85565b6000818152602081815260408083206001600160a01b03861684529091529020545b92915050565b60006001600160e01b03198216636cdb3d1360e11b148061054e57506001600160e01b031982166303a24d0760e21b145b8061051757506301ffc9a760e01b6001600160e01b0319831614610517565b606061057882610fcb565b61059d5760405162461bcd60e51b815260040161059490612383565b60405180910390fd5b6000828152600a6020526040902080546105b6906123ad565b80601f01602080910402602001604051908101604052809291908181526020018280546105e2906123ad565b801561062f5780601f106106045761010080835404028352916020019161062f565b820191906000526020600020905b81548152906001019060200180831161061257829003601f168201915b50505050509050919050565b3360009081526008602052604090205460ff1661066a5760405162461bcd60e51b8152600401610594906123e7565b610672610ff1565b6001600160a01b03821660009081526008602052604090205481151560ff9091161515036106d05760405162461bcd60e51b815260206004820152600b60248201526a105b1c9958591e481cd95d60aa1b6044820152606401610594565b6106da8282611015565b5050565b3360009081526008602052604090205460ff1661070d5760405162461bcd60e51b8152600401610594906123e7565b610715610ff1565b80600954036107545760405162461bcd60e51b815260206004820152600b60248201526a105b1c9958591e481cd95d60aa1b6044820152606401610594565b61075d81611074565b50565b336001600160a01b0386168114801590610781575061077f8682610c88565b155b156107b25760405163711bec9160e11b81526001600160a01b03808316600483015287166024820152604401610594565b6107bf86868686866110af565b505050505050565b3360009081526008602052604090205460ff166107f65760405162461bcd60e51b8152600401610594906123e7565b6107fe611116565b610806611139565b565b606081518351146108395781518351604051635b05999160e01b815260048101929092526024820152604401610594565b600083516001600160401b0381111561085457610854611ccd565b60405190808252806020026020018201604052801561087d578160200160208202803683370190505b50905060005b84518110156108d4576020808202860101516108a7906020808402870101516104f5565b8282815181106108b9576108b961241e565b60209081029190910101526108cd8161244a565b9050610883565b509392505050565b3360009081526008602052604090205460ff1661090b5760405162461bcd60e51b8152600401610594906123e7565b610913610ff1565b61091b61118b565b61092483610fcb565b6109405760405162461bcd60e51b815260040161059490612383565b61094c848484846111b5565b6109566001600655565b50505050565b6001600160a01b038316331480159061097c575061097a8333610c88565b155b156109b057335b60405163711bec9160e11b81526001600160a01b0391821660048201529084166024820152604401610594565b6109bb838383611212565b505050565b6109c8611258565b610806600061128b565b60408051606080820183528152600060208201819052918101919091526109f882610fcb565b610a145760405162461bcd60e51b815260040161059490612383565b6000828152600a602052604090819020815160608101909252805482908290610a3c906123ad565b80601f0160208091040260200160405190810160405280929190818152602001828054610a68906123ad565b8015610ab55780601f10610a8a57610100808354040283529160200191610ab5565b820191906000526020600020905b815481529060010190602001808311610a9857829003601f168201915b50505091835250506001919091015460ff8082161515602084015261010090910416151560409091015292915050565b3360009081526008602052604090205460ff16610b145760405162461bcd60e51b8152600401610594906123e7565b610b1c610ff1565b6108066112e5565b6106da338383611322565b3360009081526008602052604090205460ff16610b5e5760405162461bcd60e51b8152600401610594906123e7565b600755565b3360009081526008602052604090205460ff16610b925760405162461bcd60e51b8152600401610594906123e7565b610b9a610ff1565b604051806060016040528085858080601f0160208091040260200160405190810160405280939291908181526020018383808284376000920182905250938552505050841515602080840191909152841515604093840152888252600a90522081518190610c0890826124a9565b506020828101516001909201805460409485015115156101000261ff00199415159490941661ffff1990911617929092179091556000878152600a909152819020905186917f621f483e6c77fc1030834603178d59a2e68dda37bf6fd11cf5d8fd34f32962e191610c799190612568565b60405180910390a25050505050565b6001600160a01b03918216600090815260016020908152604080832093909416825291909152205460ff1690565b3360009081526008602052604090205460ff16610ce55760405162461bcd60e51b8152600401610594906123e7565b610ced610ff1565b610cf561118b565b60005b85811015610d4f57610d21878783818110610d1557610d1561241e565b90506020020135610fcb565b610d3d5760405162461bcd60e51b815260040161059490612383565b80610d478161244a565b915050610cf8565b50610df28787878080602002602001604051908101604052809392919081815260200183836020028082843760009201919091525050604080516020808b0282810182019093528a82529093508a92508991829185019084908082843760009201919091525050604080516020601f8a0181900481028201810190925288815292508891508790819084018382808284376000920191909152506113b892505050565b610dfc6001600655565b50505050505050565b336001600160a01b0386168114801590610e265750610e248682610c88565b155b15610e575760405163711bec9160e11b81526001600160a01b03808316600483015287166024820152604401610594565b6107bf86868686866113f0565b610e6c611258565b6001600160a01b038116610e9657604051631e4fbdf760e01b815260006004820152602401610594565b61075d8161128b565b600a60205260009081526040902080548190610eba906123ad565b80601f0160208091040260200160405190810160405280929190818152602001828054610ee6906123ad565b8015610f335780601f10610f0857610100808354040283529160200191610f33565b820191906000526020600020905b815481529060010190602001808311610f1657829003601f168201915b5050506001909301549192505060ff8082169161010090041683565b6001600160a01b0383163314801590610f6f5750610f6d8333610c88565b155b15610f7a5733610983565b6109bb838383611475565b3360009081526008602052604090205460ff16610fb45760405162461bcd60e51b8152600401610594906123e7565b60078054906000610fc48361244a565b9190505550565b6000818152600a602052604081208054829190610fe7906123ad565b9050119050919050565b60055460ff16156108065760405163d93c066560e01b815260040160405180910390fd5b6001600160a01b038216600081815260086020908152604091829020805460ff191685151590811790915591519182527f827c394aebf0fcbf2d4f5c0107a0031a3860ec0d5e06756e03aacccfb8d2836e910160405180910390a25050565b60098190556040518181527f341e6d34232a2fe647db529f1e690255fe0f36813172ab19aca8915490e8f75c9060200160405180910390a150565b6001600160a01b0384166110d957604051632bfa23e760e11b815260006004820152602401610594565b6001600160a01b03851661110257604051626a0d4560e21b815260006004820152602401610594565b61110f85858585856114d9565b5050505050565b60055460ff1661080657604051638dfc202b60e01b815260040160405180910390fd5b611141611116565b6005805460ff191690557f5db9ee0a495bf2e6ff9c91a7834c1ba4fdd244a5e8aa4e537bd38aeae4b073aa335b6040516001600160a01b03909116815260200160405180910390a1565b6002600654036111ae57604051633ee5aeb560e01b815260040160405180910390fd5b6002600655565b6001600160a01b0384166111df57604051632bfa23e760e11b815260006004820152602401610594565b604080516001808252602082018690528183019081526060820185905260808201909252906107bf6000878484876114d9565b6001600160a01b03831661123b57604051626a0d4560e21b815260006004820152602401610594565b6109bb8360008484604051806020016040528060008152506114d9565b6005546001600160a01b036101009091041633146108065760405163118cdaa760e01b8152336004820152602401610594565b600580546001600160a01b03838116610100818102610100600160a81b031985161790945560405193909204169182907f8be0079c531659141344cd1fd0a4f28419497f9722a3daafe3b4186f6b6457e090600090a35050565b6112ed610ff1565b6005805460ff191660011790557f62e78cea01bee320cd4e420270b5ea74000d11b0c9f74754ebdbfc544b05a25861116e3390565b6001600160a01b03821661134b5760405162ced3e160e81b815260006004820152602401610594565b6001600160a01b03838116600081815260016020908152604080832094871680845294825291829020805460ff191686151590811790915591519182527f17307eab39ab6107e8899845ad3d59bd9653f200f220920489ca2b5937696c31910160405180910390a3505050565b6001600160a01b0384166113e257604051632bfa23e760e11b815260006004820152602401610594565b6109566000858585856114d9565b6001600160a01b03841661141a57604051632bfa23e760e11b815260006004820152602401610594565b6001600160a01b03851661144357604051626a0d4560e21b815260006004820152602401610594565b60408051600180825260208201869052818301908152606082018590526080820190925290610dfc87878484876114d9565b6001600160a01b03831661149e57604051626a0d4560e21b815260006004820152602401610594565b604080516001808252602082018590528183019081526060820184905260a0820190925260006080820181815291929161110f918791859085905b6114e58585858561152c565b6001600160a01b0384161561110f578251339060010361151e5760208481015190840151611517838989858589611605565b50506107bf565b6107bf818787878787611729565b61153884848484611812565b6001600160a01b0384161580159061155857506001600160a01b03831615155b156109565760005b825181101561110f57600a600084838151811061157f5761157f61241e565b6020026020010151815260200190815260200160002060010160019054906101000a900460ff16156115f35760405162461bcd60e51b815260206004820181905260248201527f536f756c626f756e647320617265206e6f74207472616e736665727261626c656044820152606401610594565b806115fd8161244a565b915050611560565b6001600160a01b0384163b156107bf5760405163f23a6e6160e01b81526001600160a01b0385169063f23a6e61906116499089908990889088908890600401612622565b6020604051808303816000875af1925050508015611684575060408051601f3d908101601f1916820190925261168191810190612667565b60015b6116ed573d8080156116b2576040519150601f19603f3d011682016040523d82523d6000602084013e6116b7565b606091505b5080516000036116e557604051632bfa23e760e11b81526001600160a01b0386166004820152602401610594565b805181602001fd5b6001600160e01b0319811663f23a6e6160e01b14610dfc57604051632bfa23e760e11b81526001600160a01b0386166004820152602401610594565b6001600160a01b0384163b156107bf5760405163bc197c8160e01b81526001600160a01b0385169063bc197c819061176d9089908990889088908890600401612684565b6020604051808303816000875af19250505080156117a8575060408051601f3d908101601f191682019092526117a591810190612667565b60015b6117d6573d8080156116b2576040519150601f19603f3d011682016040523d82523d6000602084013e6116b7565b6001600160e01b0319811663bc197c8160e01b14610dfc57604051632bfa23e760e11b81526001600160a01b0386166004820152602401610594565b61181a610ff1565b6109568484848461182d8484848461197b565b6001600160a01b0384166118e0576000805b83518110156118c657600083828151811061185c5761185c61241e565b60200260200101519050806003600087858151811061187d5761187d61241e565b6020026020010151815260200190815260200160002060008282546118a291906126e2565b909155506118b2905081846126e2565b925050806118bf9061244a565b905061183f565b5080600460008282546118d991906126e2565b9091555050505b6001600160a01b038316610956576000805b835181101561196a57600083828151811061190f5761190f61241e565b6020026020010151905080600360008785815181106119305761193061241e565b6020026020010151815260200190815260200160002060008282540392505081905550808301925050806119639061244a565b90506118f2565b506004805491909103905550505050565b80518251146119aa5781518151604051635b05999160e01b815260048101929092526024820152604401610594565b3360005b8351811015611ab9576020818102858101820151908501909101516001600160a01b03881615611a61576000828152602081815260408083206001600160a01b038c16845290915290205481811015611a3a576040516303dee4c560e01b81526001600160a01b038a166004820152602481018290526044810183905260648101849052608401610594565b6000838152602081815260408083206001600160a01b038d16845290915290209082900390555b6001600160a01b03871615611aa6576000828152602081815260408083206001600160a01b038b16845290915281208054839290611aa09084906126e2565b90915550505b505080611ab29061244a565b90506119ae565b508251600103611b3a5760208301516000906020840151909150856001600160a01b0316876001600160a01b0316846001600160a01b03167fc3d58168c5ae7397731d063d5bbf3d657854427343f4c083240f7aacaa2d0f628585604051611b2b929190918252602082015260400190565b60405180910390a4505061110f565b836001600160a01b0316856001600160a01b0316826001600160a01b03167f4a39dc06d4c0dbc64b70af90fd698a233a518aa5d07e595d983b8c0526c8f7fb8686604051611b899291906126f5565b60405180910390a45050505050565b80356001600160a01b0381168114611baf57600080fd5b919050565b60008060408385031215611bc757600080fd5b611bd083611b98565b946020939093013593505050565b6001600160e01b03198116811461075d57600080fd5b600060208284031215611c0657600080fd5b8135611c1181611bde565b9392505050565b600060208284031215611c2a57600080fd5b5035919050565b6000815180845260005b81811015611c5757602081850181015186830182015201611c3b565b506000602082860101526020601f19601f83011685010191505092915050565b602081526000611c116020830184611c31565b80358015158114611baf57600080fd5b60008060408385031215611cad57600080fd5b611cb683611b98565b9150611cc460208401611c8a565b90509250929050565b634e487b7160e01b600052604160045260246000fd5b604051601f8201601f191681016001600160401b0381118282101715611d0b57611d0b611ccd565b604052919050565b60006001600160401b03821115611d2c57611d2c611ccd565b5060051b60200190565b600082601f830112611d4757600080fd5b81356020611d5c611d5783611d13565b611ce3565b82815260059290921b84018101918181019086841115611d7b57600080fd5b8286015b84811015611d965780358352918301918301611d7f565b509695505050505050565b600082601f830112611db257600080fd5b81356001600160401b03811115611dcb57611dcb611ccd565b611dde601f8201601f1916602001611ce3565b818152846020838601011115611df357600080fd5b816020850160208301376000918101602001919091529392505050565b600080600080600060a08688031215611e2857600080fd5b611e3186611b98565b9450611e3f60208701611b98565b935060408601356001600160401b0380821115611e5b57600080fd5b611e6789838a01611d36565b94506060880135915080821115611e7d57600080fd5b611e8989838a01611d36565b93506080880135915080821115611e9f57600080fd5b50611eac88828901611da1565b9150509295509295909350565b60008060408385031215611ecc57600080fd5b82356001600160401b0380821115611ee357600080fd5b818501915085601f830112611ef757600080fd5b81356020611f07611d5783611d13565b82815260059290921b84018101918181019089841115611f2657600080fd5b948201945b83861015611f4b57611f3c86611b98565b82529482019490820190611f2b565b96505086013592505080821115611f6157600080fd5b50611f6e85828601611d36565b9150509250929050565b600081518084526020808501945080840160005b83811015611fa857815187529582019590820190600101611f8c565b509495945050505050565b602081526000611c116020830184611f78565b60008060008060808587031215611fdc57600080fd5b611fe585611b98565b9350602085013592506040850135915060608501356001600160401b0381111561200e57600080fd5b61201a87828801611da1565b91505092959194509250565b60008060006060848603121561203b57600080fd5b61204484611b98565b925060208401356001600160401b038082111561206057600080fd5b61206c87838801611d36565b9350604086013591508082111561208257600080fd5b5061208f86828701611d36565b9150509250925092565b6020815260008251606060208401526120b56080840182611c31565b90506020840151151560408401526040840151151560608401528091505092915050565b60008083601f8401126120eb57600080fd5b5081356001600160401b0381111561210257600080fd5b60208301915083602082850101111561211a57600080fd5b9250929050565b60008060008060006080868803121561213957600080fd5b8535945060208601356001600160401b0381111561215657600080fd5b612162888289016120d9565b9095509350612175905060408701611c8a565b915061218360608701611c8a565b90509295509295909350565b6000602082840312156121a157600080fd5b611c1182611b98565b600080604083850312156121bd57600080fd5b6121c683611b98565b9150611cc460208401611b98565b60008083601f8401126121e657600080fd5b5081356001600160401b038111156121fd57600080fd5b6020830191508360208260051b850101111561211a57600080fd5b60008060008060008060006080888a03121561223357600080fd5b61223c88611b98565b965060208801356001600160401b038082111561225857600080fd5b6122648b838c016121d4565b909850965060408a013591508082111561227d57600080fd5b6122898b838c016121d4565b909650945060608a01359150808211156122a257600080fd5b506122af8a828b016120d9565b989b979a50959850939692959293505050565b600080600080600060a086880312156122da57600080fd5b6122e386611b98565b94506122f160208701611b98565b9350604086013592506060860135915060808601356001600160401b0381111561231a57600080fd5b611eac88828901611da1565b6060815260006123396060830186611c31565b931515602083015250901515604090910152919050565b60008060006060848603121561236557600080fd5b61236e84611b98565b95602085013595506040909401359392505050565b60208082526010908201526f125b9d985b1a590818985919d948125160821b604082015260600190565b600181811c908216806123c157607f821691505b6020821081036123e157634e487b7160e01b600052602260045260246000fd5b50919050565b60208082526019908201527f43616c6c6572206973206e6f7420616e204578656375746f7200000000000000604082015260600190565b634e487b7160e01b600052603260045260246000fd5b634e487b7160e01b600052601160045260246000fd5b60006001820161245c5761245c612434565b5060010190565b601f8211156109bb57600081815260208120601f850160051c8101602086101561248a5750805b601f850160051c820191505b818110156107bf57828155600101612496565b81516001600160401b038111156124c2576124c2611ccd565b6124d6816124d084546123ad565b84612463565b602080601f83116001811461250b57600084156124f35750858301515b600019600386901b1c1916600185901b1785556107bf565b600085815260208120601f198616915b8281101561253a5788860151825594840194600190910190840161251b565b50858210156125585787850151600019600388901b60f8161c191681555b5050505050600190811b01905550565b6000602080835260608184015260008454612582816123ad565b80608087015260a06001808416600081146125a457600181146125be576125ec565b60ff1985168984015283151560051b8901830195506125ec565b896000528660002060005b858110156125e45781548b82018601529083019088016125c9565b8a0184019650505b5088015460ff811615156040890152945061260692505050565b61261a6060850160ff8460081c1615159052565b949350505050565b6001600160a01b03868116825285166020820152604081018490526060810183905260a06080820181905260009061265c90830184611c31565b979650505050505050565b60006020828403121561267957600080fd5b8151611c1181611bde565b6001600160a01b0386811682528516602082015260a0604082018190526000906126b090830186611f78565b82810360608401526126c28186611f78565b905082810360808401526126d68185611c31565b98975050505050505050565b8082018082111561051757610517612434565b6040815260006127086040830185611f78565b828103602084015261271a8185611f78565b9594505050505056fea264697066735822122044c485183473f246db4214e43cd1900c0667f9ab00e0107f9c450cf6c5d7210364736f6c63430008140033",
    "linkReferences": {}
  }
}