{
  "abi": [
    {
      "inputs": [
        {
          "internalType": "contract IEntryPoint",
          "name": "anEntryPoint",
          "type": "address"
        },
        {
          "internalType": "address",
          "name": "anEllipticCurve",
          "type": "address"
        }
      ],
      "stateMutability": "nonpayable",
      "type": "constructor"
    },
    {
      "inputs": [
        {
          "internalType": "address",
          "name": "target",
          "type": "address"
        }
      ],
      "name": "AddressEmptyCode",
      "type": "error"
    },
    {
      "inputs": [],
      "name": "AlreadyInitialized",
      "type": "error"
    },
    {
      "inputs": [
        {
          "internalType": "uint256",
          "name": "location",
          "type": "uint256"
        },
        {
          "internalType": "uint256",
          "name": "data0",
          "type": "uint256"
        },
        {
          "internalType": "uint256",
          "name": "data1",
          "type": "uint256"
        },
        {
          "internalType": "bytes",
          "name": "data2",
          "type": "bytes"
        },
        {
          "internalType": "bytes",
          "name": "data3",
          "type": "bytes"
        }
      ],
      "name": "ContentVerificationError",
      "type": "error"
    },
    {
      "inputs": [
        {
          "internalType": "address",
          "name": "implementation",
          "type": "address"
        }
      ],
      "name": "ERC1967InvalidImplementation",
      "type": "error"
    },
    {
      "inputs": [],
      "name": "FailedInnerCall",
      "type": "error"
    },
    {
      "inputs": [],
      "name": "NotInitializing",
      "type": "error"
    },
    {
      "inputs": [],
      "name": "UUPSUnauthorizedCallContext",
      "type": "error"
    },
    {
      "inputs": [
        {
          "internalType": "bytes32",
          "name": "slot",
          "type": "bytes32"
        }
      ],
      "name": "UUPSUnsupportedProxiableUUID",
      "type": "error"
    },
    {
      "anonymous": false,
      "inputs": [
        {
          "indexed": false,
          "internalType": "uint8",
          "name": "version",
          "type": "uint8"
        }
      ],
      "name": "Initialized",
      "type": "event"
    },
    {
      "anonymous": false,
      "inputs": [
        {
          "indexed": true,
          "internalType": "contract IEntryPoint",
          "name": "entryPoint",
          "type": "address"
        },
        {
          "indexed": true,
          "internalType": "address",
          "name": "owner",
          "type": "address"
        }
      ],
      "name": "SimpleAccountInitialized",
      "type": "event"
    },
    {
      "anonymous": false,
      "inputs": [
        {
          "indexed": true,
          "internalType": "address",
          "name": "implementation",
          "type": "address"
        }
      ],
      "name": "Upgraded",
      "type": "event"
    },
    {
      "inputs": [],
      "name": "addDeposit",
      "outputs": [],
      "stateMutability": "payable",
      "type": "function"
    },
    {
      "inputs": [
        {
          "internalType": "string",
          "name": "_credentialID",
          "type": "string"
        },
        {
          "internalType": "string",
          "name": "_origin",
          "type": "string"
        },
        {
          "internalType": "uint256[2]",
          "name": "_q",
          "type": "uint256[2]"
        }
      ],
      "name": "addPasskey",
      "outputs": [],
      "stateMutability": "nonpayable",
      "type": "function"
    },
    {
      "inputs": [
        {
          "internalType": "string",
          "name": "",
          "type": "string"
        }
      ],
      "name": "credIdToConfigs",
      "outputs": [
        {
          "internalType": "string",
          "name": "credentialID",
          "type": "string"
        },
        {
          "internalType": "string",
          "name": "origin",
          "type": "string"
        }
      ],
      "stateMutability": "view",
      "type": "function"
    },
    {
      "inputs": [],
      "name": "ec",
      "outputs": [
        {
          "internalType": "address",
          "name": "",
          "type": "address"
        }
      ],
      "stateMutability": "view",
      "type": "function"
    },
    {
      "inputs": [],
      "name": "entryPoint",
      "outputs": [
        {
          "internalType": "contract IEntryPoint",
          "name": "",
          "type": "address"
        }
      ],
      "stateMutability": "view",
      "type": "function"
    },
    {
      "inputs": [
        {
          "internalType": "address",
          "name": "dest",
          "type": "address"
        },
        {
          "internalType": "uint256",
          "name": "value",
          "type": "uint256"
        },
        {
          "internalType": "bytes",
          "name": "func",
          "type": "bytes"
        }
      ],
      "name": "execute",
      "outputs": [],
      "stateMutability": "nonpayable",
      "type": "function"
    },
    {
      "inputs": [
        {
          "internalType": "address[]",
          "name": "dest",
          "type": "address[]"
        },
        {
          "internalType": "bytes[]",
          "name": "func",
          "type": "bytes[]"
        }
      ],
      "name": "executeBatch",
      "outputs": [],
      "stateMutability": "nonpayable",
      "type": "function"
    },
    {
      "inputs": [],
      "name": "getDeposit",
      "outputs": [
        {
          "internalType": "uint256",
          "name": "",
          "type": "uint256"
        }
      ],
      "stateMutability": "view",
      "type": "function"
    },
    {
      "inputs": [],
      "name": "getNonce",
      "outputs": [
        {
          "internalType": "uint256",
          "name": "",
          "type": "uint256"
        }
      ],
      "stateMutability": "view",
      "type": "function"
    },
    {
      "inputs": [
        {
          "internalType": "address",
          "name": "anOwner",
          "type": "address"
        },
        {
          "internalType": "uint256[2]",
          "name": "_q",
          "type": "uint256[2]"
        },
        {
          "internalType": "string",
          "name": "_credentialID",
          "type": "string"
        },
        {
          "internalType": "string",
          "name": "_origin",
          "type": "string"
        }
      ],
      "name": "initialize",
      "outputs": [],
      "stateMutability": "nonpayable",
      "type": "function"
    },
    {
      "inputs": [
        {
          "internalType": "address",
          "name": "anOwner",
          "type": "address"
        }
      ],
      "name": "initialize",
      "outputs": [],
      "stateMutability": "nonpayable",
      "type": "function"
    },
    {
      "inputs": [
        {
          "internalType": "bytes32",
          "name": "_hash",
          "type": "bytes32"
        },
        {
          "internalType": "bytes",
          "name": "_signature",
          "type": "bytes"
        }
      ],
      "name": "isValidSignature",
      "outputs": [
        {
          "internalType": "bytes4",
          "name": "magicValue",
          "type": "bytes4"
        }
      ],
      "stateMutability": "view",
      "type": "function"
    },
    {
      "inputs": [
        {
          "internalType": "address",
          "name": "",
          "type": "address"
        },
        {
          "internalType": "address",
          "name": "",
          "type": "address"
        },
        {
          "internalType": "uint256[]",
          "name": "",
          "type": "uint256[]"
        },
        {
          "internalType": "uint256[]",
          "name": "",
          "type": "uint256[]"
        },
        {
          "internalType": "bytes",
          "name": "",
          "type": "bytes"
        }
      ],
      "name": "onERC1155BatchReceived",
      "outputs": [
        {
          "internalType": "bytes4",
          "name": "",
          "type": "bytes4"
        }
      ],
      "stateMutability": "pure",
      "type": "function"
    },
    {
      "inputs": [
        {
          "internalType": "address",
          "name": "",
          "type": "address"
        },
        {
          "internalType": "address",
          "name": "",
          "type": "address"
        },
        {
          "internalType": "uint256",
          "name": "",
          "type": "uint256"
        },
        {
          "internalType": "uint256",
          "name": "",
          "type": "uint256"
        },
        {
          "internalType": "bytes",
          "name": "",
          "type": "bytes"
        }
      ],
      "name": "onERC1155Received",
      "outputs": [
        {
          "internalType": "bytes4",
          "name": "",
          "type": "bytes4"
        }
      ],
      "stateMutability": "pure",
      "type": "function"
    },
    {
      "inputs": [
        {
          "internalType": "address",
          "name": "",
          "type": "address"
        },
        {
          "internalType": "address",
          "name": "",
          "type": "address"
        },
        {
          "internalType": "uint256",
          "name": "",
          "type": "uint256"
        },
        {
          "internalType": "bytes",
          "name": "",
          "type": "bytes"
        }
      ],
      "name": "onERC721Received",
      "outputs": [
        {
          "internalType": "bytes4",
          "name": "",
          "type": "bytes4"
        }
      ],
      "stateMutability": "pure",
      "type": "function"
    },
    {
      "inputs": [],
      "name": "owner",
      "outputs": [
        {
          "internalType": "address",
          "name": "",
          "type": "address"
        }
      ],
      "stateMutability": "view",
      "type": "function"
    },
    {
      "inputs": [],
      "name": "proxiableUUID",
      "outputs": [
        {
          "internalType": "bytes32",
          "name": "",
          "type": "bytes32"
        }
      ],
      "stateMutability": "view",
      "type": "function"
    },
    {
      "inputs": [
        {
          "internalType": "bytes4",
          "name": "interfaceId",
          "type": "bytes4"
        }
      ],
      "name": "supportsInterface",
      "outputs": [
        {
          "internalType": "bool",
          "name": "",
          "type": "bool"
        }
      ],
      "stateMutability": "view",
      "type": "function"
    },
    {
      "inputs": [
        {
          "internalType": "address",
          "name": "",
          "type": "address"
        },
        {
          "internalType": "address",
          "name": "",
          "type": "address"
        },
        {
          "internalType": "address",
          "name": "",
          "type": "address"
        },
        {
          "internalType": "uint256",
          "name": "",
          "type": "uint256"
        },
        {
          "internalType": "bytes",
          "name": "",
          "type": "bytes"
        },
        {
          "internalType": "bytes",
          "name": "",
          "type": "bytes"
        }
      ],
      "name": "tokensReceived",
      "outputs": [],
      "stateMutability": "pure",
      "type": "function"
    },
    {
      "inputs": [
        {
          "internalType": "address",
          "name": "newImplementation",
          "type": "address"
        }
      ],
      "name": "upgradeTo",
      "outputs": [],
      "stateMutability": "nonpayable",
      "type": "function"
    },
    {
      "inputs": [
        {
          "internalType": "address",
          "name": "newImplementation",
          "type": "address"
        },
        {
          "internalType": "bytes",
          "name": "data",
          "type": "bytes"
        }
      ],
      "name": "upgradeToAndCall",
      "outputs": [],
      "stateMutability": "payable",
      "type": "function"
    },
    {
      "inputs": [
        {
          "components": [
            {
              "internalType": "address",
              "name": "sender",
              "type": "address"
            },
            {
              "internalType": "uint256",
              "name": "nonce",
              "type": "uint256"
            },
            {
              "internalType": "bytes",
              "name": "initCode",
              "type": "bytes"
            },
            {
              "internalType": "bytes",
              "name": "callData",
              "type": "bytes"
            },
            {
              "internalType": "uint256",
              "name": "callGasLimit",
              "type": "uint256"
            },
            {
              "internalType": "uint256",
              "name": "verificationGasLimit",
              "type": "uint256"
            },
            {
              "internalType": "uint256",
              "name": "preVerificationGas",
              "type": "uint256"
            },
            {
              "internalType": "uint256",
              "name": "maxFeePerGas",
              "type": "uint256"
            },
            {
              "internalType": "uint256",
              "name": "maxPriorityFeePerGas",
              "type": "uint256"
            },
            {
              "internalType": "bytes",
              "name": "paymasterAndData",
              "type": "bytes"
            },
            {
              "internalType": "bytes",
              "name": "signature",
              "type": "bytes"
            }
          ],
          "internalType": "struct UserOperation",
          "name": "userOp",
          "type": "tuple"
        },
        {
          "internalType": "bytes32",
          "name": "userOpHash",
          "type": "bytes32"
        },
        {
          "internalType": "uint256",
          "name": "missingAccountFunds",
          "type": "uint256"
        }
      ],
      "name": "validateUserOp",
      "outputs": [
        {
          "internalType": "uint256",
          "name": "validationData",
          "type": "uint256"
        }
      ],
      "stateMutability": "nonpayable",
      "type": "function"
    },
    {
      "inputs": [
        {
          "internalType": "bytes",
          "name": "signature",
          "type": "bytes"
        },
        {
          "internalType": "bytes32",
          "name": "msgHash",
          "type": "bytes32"
        }
      ],
      "name": "verifySignature",
      "outputs": [
        {
          "internalType": "uint256",
          "name": "sigTimeRange",
          "type": "uint256"
        }
      ],
      "stateMutability": "view",
      "type": "function"
    },
    {
      "inputs": [
        {
          "internalType": "address payable",
          "name": "withdrawAddress",
          "type": "address"
        },
        {
          "internalType": "uint256",
          "name": "amount",
          "type": "uint256"
        }
      ],
      "name": "withdrawDepositTo",
      "outputs": [],
      "stateMutability": "nonpayable",
      "type": "function"
    },
    {
      "stateMutability": "payable",
      "type": "receive"
    }
  ],
  "bytecode": {
    "object": "0x60e0604052306080523480156200001557600080fd5b5060405162002914380380620029148339810160408190526200003891620000fa565b6001600160a01b03821660a052816200005062000064565b506001600160a01b031660c0525062000139565b600054610100900460ff16156200008d5760405162dc149f60e41b815260040160405180910390fd5b60005460ff90811614620000df576000805460ff191660ff9081179091556040519081527f7f26b83ff96e1f2b6a682f133852f6798a09c465da95921460cefb38474024989060200160405180910390a15b565b6001600160a01b0381168114620000f757600080fd5b50565b600080604083850312156200010e57600080fd5b82516200011b81620000e1565b60208401519092506200012e81620000e1565b809150509250929050565b60805160a05160c051612757620001bd600039600081816104b001526111aa015260008181610394015281816108940152818161091501528181610ce401528181610e4c015281816112530152818161141e015261155a01526000818161066001528181610689015281816109a7015281816109d00152610ba001526127576000f3fe60806040526004361061014e5760003560e01c806352d1902d116100b6578063c399ec881161006f578063c399ec8814610407578063c4d66de81461041c578063d087d2881461043c578063e198932614610451578063f23a6e6114610471578063f83b5dce1461049e57600080fd5b806352d1902d146103125780635a3093e4146103275780638da5cb5b14610347578063b0d691fe14610385578063b61d27f6146103b8578063bc197c81146103d857600080fd5b80633a871cdd116101085780633a871cdd1461025b5780633ef6ada1146102895780634a58db19146102a95780634d44560d146102b15780634f1ef286146102d15780635221bd43146102e457600080fd5b806223de291461015a57806301ffc9a714610181578063150b7a02146101b65780631626ba7e146101fb57806318dfb3c71461021b5780633659cfe61461023b57600080fd5b3661015557005b600080fd5b34801561016657600080fd5b5061017f610175366004611ae2565b5050505050505050565b005b34801561018d57600080fd5b506101a161019c366004611b92565b6104d2565b60405190151581526020015b60405180910390f35b3480156101c257600080fd5b506101e26101d1366004611bbc565b630a85bd0160e11b95945050505050565b6040516001600160e01b031990911681526020016101ad565b34801561020757600080fd5b506101e2610216366004611cf1565b610524565b34801561022757600080fd5b5061017f610236366004611d7b565b610555565b34801561024757600080fd5b5061017f610256366004611de6565b610655565b34801561026757600080fd5b5061027b610276366004611e03565b610722565b6040519081526020016101ad565b34801561029557600080fd5b5061017f6102a4366004611ec5565b610748565b61017f610892565b3480156102bd57600080fd5b5061017f6102cc366004611f4c565b61090b565b61017f6102df366004611f78565b61099c565b3480156102f057600080fd5b506103046102ff366004611fb1565b610a5a565b6040516101ad929190612035565b34801561031e57600080fd5b5061027b610b93565b34801561033357600080fd5b5061017f610342366004612063565b610bf1565b34801561035357600080fd5b5060005461036d906201000090046001600160a01b031681565b6040516001600160a01b0390911681526020016101ad565b34801561039157600080fd5b507f000000000000000000000000000000000000000000000000000000000000000061036d565b3480156103c457600080fd5b5061017f6103d33660046120d7565b610c75565b3480156103e457600080fd5b506101e26103f3366004612126565b63bc197c8160e01b98975050505050505050565b34801561041357600080fd5b5061027b610cc4565b34801561042857600080fd5b5061017f610437366004611de6565b610d55565b34801561044857600080fd5b5061027b610e25565b34801561045d57600080fd5b5061027b61046c3660046121c3565b610e7b565b34801561047d57600080fd5b506101e261048c366004612207565b63f23a6e6160e01b9695505050505050565b3480156104aa57600080fd5b5061036d7f000000000000000000000000000000000000000000000000000000000000000081565b60006001600160e01b03198216630a85bd0160e11b148061050357506001600160e01b03198216630271189760e51b145b8061051e57506001600160e01b031982166301ffc9a760e01b145b92915050565b60006105308284610e7b565b6000036105455750630b135d3f60e11b61051e565b506001600160e01b031992915050565b61055d611248565b8281146105a75760405162461bcd60e51b815260206004820152601360248201527277726f6e67206172726179206c656e6774687360681b60448201526064015b60405180910390fd5b60005b8381101561064e5761063c8585838181106105c7576105c7612282565b90506020020160208101906105dc9190611de6565b60008585858181106105f0576105f0612282565b90506020028101906106029190612298565b8080601f0160208091040260200160405190810160405280939291908181526020018383808284376000920191909152506112dd92505050565b80610646816122f4565b9150506105aa565b5050505050565b306001600160a01b037f00000000000000000000000000000000000000000000000000000000000000001614806106dc57507f00000000000000000000000000000000000000000000000000000000000000006001600160a01b03166106d0600080516020612702833981519152546001600160a01b031690565b6001600160a01b031614155b156106fa5760405163703e46dd60e11b815260040160405180910390fd5b6107038161134d565b6040805160008082526020820190925261071f91839190611355565b50565b600061072c611413565b610736848461148b565b9050610741826114da565b9392505050565b600054610100900460ff16158080156107685750600054600160ff909116105b1580156107865750303b158015610784575060005460ff166001145b155b156107a35760405162dc149f60e41b815260040160405180910390fd5b6000805460ff1916600117905580156107c6576000805461ff0019166101001790555b6107cf85611527565b6040518060600160405280858152602001848152602001838152506001846040516107fa919061230d565b90815260405190819003602001902081516108189082906002611a32565b506020820151600282019061082d90826123a9565b506040820151600382019061084290826123a9565b50905050801561064e576000805461ff0019169055604051600181527f7f26b83ff96e1f2b6a682f133852f6798a09c465da95921460cefb38474024989060200160405180910390a15050505050565b7f000000000000000000000000000000000000000000000000000000000000000060405163b760faf960e01b81523060048201526001600160a01b03919091169063b760faf99034906024016000604051808303818588803b1580156108f757600080fd5b505af115801561064e573d6000803e3d6000fd5b6109136115a3565b7f000000000000000000000000000000000000000000000000000000000000000060405163040b850f60e31b81526001600160a01b03848116600483015260248201849052919091169063205c287890604401600060405180830381600087803b15801561098057600080fd5b505af1158015610994573d6000803e3d6000fd5b505050505050565b306001600160a01b037f0000000000000000000000000000000000000000000000000000000000000000161480610a2357507f00000000000000000000000000000000000000000000000000000000000000006001600160a01b0316610a17600080516020612702833981519152546001600160a01b031690565b6001600160a01b031614155b15610a415760405163703e46dd60e11b815260040160405180910390fd5b610a4a8261134d565b610a5682826001611355565b5050565b80516020818301810180516001825292820191909301209152600281018054610a8290612329565b80601f0160208091040260200160405190810160405280929190818152602001828054610aae90612329565b8015610afb5780601f10610ad057610100808354040283529160200191610afb565b820191906000526020600020905b815481529060010190602001808311610ade57829003601f168201915b505050505090806003018054610b1090612329565b80601f0160208091040260200160405190810160405280929190818152602001828054610b3c90612329565b8015610b895780601f10610b5e57610100808354040283529160200191610b89565b820191906000526020600020905b815481529060010190602001808311610b6c57829003601f168201915b5050505050905082565b6000306001600160a01b037f00000000000000000000000000000000000000000000000000000000000000001614610bde5760405163703e46dd60e11b815260040160405180910390fd5b5060008051602061270283398151915290565b604051806060016040528082815260200184815260200183815250600184604051610c1c919061230d565b9081526040519081900360200190208151610c3a9082906002611a32565b5060208201516002820190610c4f90826123a9565b5060408201516003820190610c6490826123a9565b50905050610c70611248565b505050565b610c7d611248565b610cbe848484848080601f0160208091040260200160405190810160405280939291908181526020018383808284376000920191909152506112dd92505050565b50505050565b6040516370a0823160e01b81523060048201526000906001600160a01b037f000000000000000000000000000000000000000000000000000000000000000016906370a08231906024015b602060405180830381865afa158015610d2c573d6000803e3d6000fd5b505050506040513d601f19601f82011682018060405250810190610d509190612468565b905090565b600054610100900460ff1615808015610d755750600054600160ff909116105b158015610d935750303b158015610d91575060005460ff166001145b155b15610db05760405162dc149f60e41b815260040160405180910390fd5b6000805460ff191660011790558015610dd3576000805461ff0019166101001790555b610ddc82611527565b8015610a56576000805461ff0019169055604051600181527f7f26b83ff96e1f2b6a682f133852f6798a09c465da95921460cefb38474024989060200160405180910390a15050565b604051631aab3f0d60e11b8152306004820152600060248201819052906001600160a01b037f000000000000000000000000000000000000000000000000000000000000000016906335567e1a90604401610d0f565b6000606080606060008087806020019051810190610e9991906124d1565b60405194995092975090955093509150600090600190610eba90889061230d565b9081526040805191829003602001822060a0830190915281606081018260028282826020028201915b815481526020019060010190808311610ee35750505050508152602001600282018054610f0f90612329565b80601f0160208091040260200160405190810160405280929190818152602001828054610f3b90612329565b8015610f885780601f10610f5d57610100808354040283529160200191610f88565b820191906000526020600020905b815481529060010190602001808311610f6b57829003601f168201915b50505050508152602001600382018054610fa190612329565b80601f0160208091040260200160405190810160405280929190818152602001828054610fcd90612329565b801561101a5780601f10610fef5761010080835404028352916020019161101a565b820191906000526020600020905b815481529060010190602001808311610ffd57829003601f168201915b505050505081525050905060006040518060a001604052808681526020016040518060400160405280600c81526020016b1dd958985d5d1a1b8b99d95d60a21b81525081526020018a60405160200161107591815260200190565b60405160208183030381529060405281526020018360400151815260200160001515815250905060006110a7826115fa565b905060006002886002896040516110be919061230d565b602060405180830381855afa1580156110db573d6000803e3d6000fd5b5050506040513d601f19601f820116820180604052508101906110fe9190612468565b60405160200161110f929190612582565b60408051601f19818403018152908290526111299161230d565b602060405180830381855afa158015611146573d6000803e3d6000fd5b5050506040513d601f19601f820116820180604052508101906111699190612468565b84518051602090910151604051632155364b60e21b8152600481019290925260248201526044810182905260648101889052608481018790529091506000907f00000000000000000000000000000000000000000000000000000000000000006001600160a01b031690638554d92c9060a401602060405180830381865afa1580156111f9573d6000803e3d6000fd5b505050506040513d601f19601f8201168201806040525081019061121d91906125a4565b90508280156112295750805b611234576001611237565b60005b9d9c50505050505050505050505050565b336001600160a01b037f000000000000000000000000000000000000000000000000000000000000000016148061128f57506000546201000090046001600160a01b031633145b6112db5760405162461bcd60e51b815260206004820181905260248201527f6163636f756e743a206e6f74204f776e6572206f7220456e747279506f696e74604482015260640161059e565b565b600080846001600160a01b031684846040516112f9919061230d565b60006040518083038185875af1925050503d8060008114611336576040519150601f19603f3d011682016040523d82523d6000602084013e61133b565b606091505b50915091508161064e57805160208201fd5b61071f6115a3565b826001600160a01b03166352d1902d6040518163ffffffff1660e01b8152600401602060405180830381865afa9250505080156113af575060408051601f3d908101601f191682019092526113ac91810190612468565b60015b6113d757604051634c9c8ce360e01b81526001600160a01b038416600482015260240161059e565b600080516020612702833981519152811461140857604051632a87526960e21b81526004810182905260240161059e565b610cbe848484611730565b336001600160a01b037f000000000000000000000000000000000000000000000000000000000000000016146112db5760405162461bcd60e51b815260206004820152601c60248201527f6163636f756e743a206e6f742066726f6d20456e747279506f696e7400000000604482015260640161059e565b600061074161149e610140850185612298565b8080601f016020809104026020016040519081016040528093929190818152602001838380828437600092019190915250869250610e7b915050565b801561071f57604051600090339060001990849084818181858888f193505050503d806000811461064e576040519150601f19603f3d011682016040523d82523d6000602084013e61064e565b6000805462010000600160b01b031916620100006001600160a01b038481168202929092178084556040519190048216927f0000000000000000000000000000000000000000000000000000000000000000909216917f47e55c76e7a6f1fd8996a1da8008c1ea29699cca35e7bcd057f2dec313b6e5de91a350565b6000546201000090046001600160a01b03163314806115c157503330145b6112db5760405162461bcd60e51b815260206004820152600a60248201526937b7363c9037bbb732b960b11b604482015260640161059e565b600080826020015161160f8460400151611755565b8460600151604051602001611626939291906125c6565b60408051601f19818403018152919052805184515191925090811090816116595784515161165690600190612662565b90505b600160005b828110156116c95784818151811061167857611678612282565b0160200151875180516001600160f81b0319909216918390811061169e5761169e612282565b01602001516001600160f81b031916146116b757600091505b806116c1816122f4565b91505061165e565b506000866000015183815181106116e2576116e2612282565b01602001516001600160f81b0319169050607d60f81b8114806117125750600b60fa1b6001600160f81b03198216145b61171b57600091505b8380156117255750815b979650505050505050565b61173983611871565b6000825111806117465750805b15610c7057610cbe83836118b1565b6060815160000361177457505060408051602081019091526000815290565b60006040518060600160405280604081526020016126c260409139905060006006845160086117a39190612675565b6117ae90600561268c565b6117b8919061269f565b6001600160401b038111156117cf576117cf611c2e565b6040519080825280601f01601f1916602001820160405280156117f9576020820181803683370190505b509050600182016020820185865187015b80821015611865576003820191508151603f8160121c168501518453600184019350603f81600c1c168501518453600184019350603f8160061c168501518453600184019350603f811685015184535060018301925061180a565b50929695505050505050565b61187a816118c0565b6040516001600160a01b038216907fbc7cd75a20ee27fd9adebab32041f755214dbc6bffa90cc0225b39da2e5c2d3b90600090a250565b6060610741838361192561193e565b806001600160a01b03163b6000036118f657604051634c9c8ce360e01b81526001600160a01b038216600482015260240161059e565b60008051602061270283398151915280546001600160a01b0319166001600160a01b0392909216919091179055565b604051630a12f52160e11b815260040160405180910390fd5b6060600080856001600160a01b03168560405161195b919061230d565b600060405180830381855af49150503d8060008114611996576040519150601f19603f3d011682016040523d82523d6000602084013e61199b565b606091505b50915091506119ac868383876119b6565b9695505050505050565b60608315611a045782516000036119fd57846001600160a01b03163b6000036119fd57604051639996b31560e01b81526001600160a01b038616600482015260240161059e565b5081611a0e565b611a0e8383611a16565b949350505050565b815115611a265781518083602001fd5b6119258163ffffffff16565b8260028101928215611a60579160200282015b82811115611a60578251825591602001919060010190611a45565b50611a6c929150611a70565b5090565b5b80821115611a6c5760008155600101611a71565b6001600160a01b038116811461071f57600080fd5b60008083601f840112611aac57600080fd5b5081356001600160401b03811115611ac357600080fd5b602083019150836020828501011115611adb57600080fd5b9250929050565b60008060008060008060008060c0898b031215611afe57600080fd5b8835611b0981611a85565b97506020890135611b1981611a85565b96506040890135611b2981611a85565b95506060890135945060808901356001600160401b0380821115611b4c57600080fd5b611b588c838d01611a9a565b909650945060a08b0135915080821115611b7157600080fd5b50611b7e8b828c01611a9a565b999c989b5096995094979396929594505050565b600060208284031215611ba457600080fd5b81356001600160e01b03198116811461074157600080fd5b600080600080600060808688031215611bd457600080fd5b8535611bdf81611a85565b94506020860135611bef81611a85565b93506040860135925060608601356001600160401b03811115611c1157600080fd5b611c1d88828901611a9a565b969995985093965092949392505050565b634e487b7160e01b600052604160045260246000fd5b604051601f8201601f191681016001600160401b0381118282101715611c6c57611c6c611c2e565b604052919050565b60006001600160401b03821115611c8d57611c8d611c2e565b50601f01601f191660200190565b600082601f830112611cac57600080fd5b8135611cbf611cba82611c74565b611c44565b818152846020838601011115611cd457600080fd5b816020850160208301376000918101602001919091529392505050565b60008060408385031215611d0457600080fd5b8235915060208301356001600160401b03811115611d2157600080fd5b611d2d85828601611c9b565b9150509250929050565b60008083601f840112611d4957600080fd5b5081356001600160401b03811115611d6057600080fd5b6020830191508360208260051b8501011115611adb57600080fd5b60008060008060408587031215611d9157600080fd5b84356001600160401b0380821115611da857600080fd5b611db488838901611d37565b90965094506020870135915080821115611dcd57600080fd5b50611dda87828801611d37565b95989497509550505050565b600060208284031215611df857600080fd5b813561074181611a85565b600080600060608486031215611e1857600080fd5b83356001600160401b03811115611e2e57600080fd5b84016101608187031215611e4157600080fd5b95602085013595506040909401359392505050565b600082601f830112611e6757600080fd5b604051604081018181106001600160401b0382111715611e8957611e89611c2e565b8060405250806040840185811115611ea057600080fd5b845b81811015611eba578035835260209283019201611ea2565b509195945050505050565b60008060008060a08587031215611edb57600080fd5b8435611ee681611a85565b9350611ef58660208701611e56565b925060608501356001600160401b0380821115611f1157600080fd5b611f1d88838901611c9b565b93506080870135915080821115611f3357600080fd5b50611f4087828801611c9b565b91505092959194509250565b60008060408385031215611f5f57600080fd5b8235611f6a81611a85565b946020939093013593505050565b60008060408385031215611f8b57600080fd5b8235611f9681611a85565b915060208301356001600160401b03811115611d2157600080fd5b600060208284031215611fc357600080fd5b81356001600160401b03811115611fd957600080fd5b611a0e84828501611c9b565b60005b83811015612000578181015183820152602001611fe8565b50506000910152565b60008151808452612021816020860160208601611fe5565b601f01601f19169290920160200192915050565b6040815260006120486040830185612009565b828103602084015261205a8185612009565b95945050505050565b60008060006080848603121561207857600080fd5b83356001600160401b038082111561208f57600080fd5b61209b87838801611c9b565b945060208601359150808211156120b157600080fd5b506120be86828701611c9b565b9250506120ce8560408601611e56565b90509250925092565b600080600080606085870312156120ed57600080fd5b84356120f881611a85565b93506020850135925060408501356001600160401b0381111561211a57600080fd5b611dda87828801611a9a565b60008060008060008060008060a0898b03121561214257600080fd5b883561214d81611a85565b9750602089013561215d81611a85565b965060408901356001600160401b038082111561217957600080fd5b6121858c838d01611d37565b909850965060608b013591508082111561219e57600080fd5b6121aa8c838d01611d37565b909650945060808b0135915080821115611b7157600080fd5b600080604083850312156121d657600080fd5b82356001600160401b038111156121ec57600080fd5b6121f885828601611c9b565b95602094909401359450505050565b60008060008060008060a0878903121561222057600080fd5b863561222b81611a85565b9550602087013561223b81611a85565b9450604087013593506060870135925060808701356001600160401b0381111561226457600080fd5b61227089828a01611a9a565b979a9699509497509295939492505050565b634e487b7160e01b600052603260045260246000fd5b6000808335601e198436030181126122af57600080fd5b8301803591506001600160401b038211156122c957600080fd5b602001915036819003821315611adb57600080fd5b634e487b7160e01b600052601160045260246000fd5b600060018201612306576123066122de565b5060010190565b6000825161231f818460208701611fe5565b9190910192915050565b600181811c9082168061233d57607f821691505b60208210810361235d57634e487b7160e01b600052602260045260246000fd5b50919050565b601f821115610c7057600081815260208120601f850160051c8101602086101561238a5750805b601f850160051c820191505b8181101561099457828155600101612396565b81516001600160401b038111156123c2576123c2611c2e565b6123d6816123d08454612329565b84612363565b602080601f83116001811461240b57600084156123f35750858301515b600019600386901b1c1916600185901b178555610994565b600085815260208120601f198616915b8281101561243a5788860151825594840194600190910190840161241b565b50858210156124585787850151600019600388901b60f8161c191681555b5050505050600190811b01905550565b60006020828403121561247a57600080fd5b5051919050565b600061248f611cba84611c74565b90508281528383830111156124a357600080fd5b610741836020830184611fe5565b600082601f8301126124c257600080fd5b61074183835160208501612481565b600080600080600060a086880312156124e957600080fd5b85516001600160401b038082111561250057600080fd5b818801915088601f83011261251457600080fd5b61252389835160208501612481565b9650602088015191508082111561253957600080fd5b61254589838a016124b1565b9550604088015191508082111561255b57600080fd5b50612568888289016124b1565b606088015160809098015196999598509695949350505050565b60008351612594818460208801611fe5565b9190910191825250602001919050565b6000602082840312156125b657600080fd5b8151801515811461074157600080fd5b683d913a3cb832911d1160b91b815283516000906125eb816009850160208901611fe5565b6e11161131b430b63632b733b2911d1160891b600991840191820152845161261a816018840160208901611fe5565b6b11161137b934b3b4b7111d1160a11b601892909101918201528351612647816024840160208801611fe5565b601160f91b6024929091019182015260250195945050505050565b8181038181111561051e5761051e6122de565b808202811582820484141761051e5761051e6122de565b8082018082111561051e5761051e6122de565b6000826126bc57634e487b7160e01b600052601260045260246000fd5b50049056fe4142434445464748494a4b4c4d4e4f505152535455565758595a6162636465666768696a6b6c6d6e6f707172737475767778797a303132333435363738392d5f360894a13ba1a3210667c828492db98dca3e2076cc3735a920a3ca505d382bbca2646970667358221220c6b4d50b05776c19e0fc97ab6088c67ac1ee84d46e66e6d223c7d01169f5330664736f6c63430008140033",
    "linkReferences": {}
  }
}