{
  "abi": [
    {
      "inputs": [
        {
          "internalType": "contract IEntryPoint",
          "name": "anEntryPoint",
          "type": "address"
        }
      ],
      "stateMutability": "nonpayable",
      "type": "constructor"
    },
    {
      "inputs": [
        {
          "internalType": "address",
          "name": "target",
          "type": "address"
        }
      ],
      "name": "AddressEmptyCode",
      "type": "error"
    },
    {
      "inputs": [],
      "name": "AlreadyInitialized",
      "type": "error"
    },
    {
      "inputs": [],
      "name": "ECDSAInvalidSignature",
      "type": "error"
    },
    {
      "inputs": [
        {
          "internalType": "uint256",
          "name": "length",
          "type": "uint256"
        }
      ],
      "name": "ECDSAInvalidSignatureLength",
      "type": "error"
    },
    {
      "inputs": [
        {
          "internalType": "bytes32",
          "name": "s",
          "type": "bytes32"
        }
      ],
      "name": "ECDSAInvalidSignatureS",
      "type": "error"
    },
    {
      "inputs": [
        {
          "internalType": "address",
          "name": "implementation",
          "type": "address"
        }
      ],
      "name": "ERC1967InvalidImplementation",
      "type": "error"
    },
    {
      "inputs": [],
      "name": "FailedInnerCall",
      "type": "error"
    },
    {
      "inputs": [],
      "name": "NotInitializing",
      "type": "error"
    },
    {
      "inputs": [],
      "name": "UUPSUnauthorizedCallContext",
      "type": "error"
    },
    {
      "inputs": [
        {
          "internalType": "bytes32",
          "name": "slot",
          "type": "bytes32"
        }
      ],
      "name": "UUPSUnsupportedProxiableUUID",
      "type": "error"
    },
    {
      "anonymous": false,
      "inputs": [
        {
          "indexed": false,
          "internalType": "uint8",
          "name": "version",
          "type": "uint8"
        }
      ],
      "name": "Initialized",
      "type": "event"
    },
    {
      "anonymous": false,
      "inputs": [
        {
          "indexed": true,
          "internalType": "contract IEntryPoint",
          "name": "entryPoint",
          "type": "address"
        },
        {
          "indexed": true,
          "internalType": "address",
          "name": "owner",
          "type": "address"
        }
      ],
      "name": "SimpleAccountInitialized",
      "type": "event"
    },
    {
      "anonymous": false,
      "inputs": [
        {
          "indexed": true,
          "internalType": "address",
          "name": "implementation",
          "type": "address"
        }
      ],
      "name": "Upgraded",
      "type": "event"
    },
    {
      "inputs": [],
      "name": "addDeposit",
      "outputs": [],
      "stateMutability": "payable",
      "type": "function"
    },
    {
      "inputs": [],
      "name": "entryPoint",
      "outputs": [
        {
          "internalType": "contract IEntryPoint",
          "name": "",
          "type": "address"
        }
      ],
      "stateMutability": "view",
      "type": "function"
    },
    {
      "inputs": [
        {
          "internalType": "address",
          "name": "dest",
          "type": "address"
        },
        {
          "internalType": "uint256",
          "name": "value",
          "type": "uint256"
        },
        {
          "internalType": "bytes",
          "name": "func",
          "type": "bytes"
        }
      ],
      "name": "execute",
      "outputs": [],
      "stateMutability": "nonpayable",
      "type": "function"
    },
    {
      "inputs": [
        {
          "internalType": "address[]",
          "name": "dest",
          "type": "address[]"
        },
        {
          "internalType": "bytes[]",
          "name": "func",
          "type": "bytes[]"
        }
      ],
      "name": "executeBatch",
      "outputs": [],
      "stateMutability": "nonpayable",
      "type": "function"
    },
    {
      "inputs": [],
      "name": "getDeposit",
      "outputs": [
        {
          "internalType": "uint256",
          "name": "",
          "type": "uint256"
        }
      ],
      "stateMutability": "view",
      "type": "function"
    },
    {
      "inputs": [],
      "name": "getNonce",
      "outputs": [
        {
          "internalType": "uint256",
          "name": "",
          "type": "uint256"
        }
      ],
      "stateMutability": "view",
      "type": "function"
    },
    {
      "inputs": [
        {
          "internalType": "address",
          "name": "anOwner",
          "type": "address"
        }
      ],
      "name": "initialize",
      "outputs": [],
      "stateMutability": "nonpayable",
      "type": "function"
    },
    {
      "inputs": [
        {
          "internalType": "address",
          "name": "",
          "type": "address"
        },
        {
          "internalType": "address",
          "name": "",
          "type": "address"
        },
        {
          "internalType": "uint256[]",
          "name": "",
          "type": "uint256[]"
        },
        {
          "internalType": "uint256[]",
          "name": "",
          "type": "uint256[]"
        },
        {
          "internalType": "bytes",
          "name": "",
          "type": "bytes"
        }
      ],
      "name": "onERC1155BatchReceived",
      "outputs": [
        {
          "internalType": "bytes4",
          "name": "",
          "type": "bytes4"
        }
      ],
      "stateMutability": "pure",
      "type": "function"
    },
    {
      "inputs": [
        {
          "internalType": "address",
          "name": "",
          "type": "address"
        },
        {
          "internalType": "address",
          "name": "",
          "type": "address"
        },
        {
          "internalType": "uint256",
          "name": "",
          "type": "uint256"
        },
        {
          "internalType": "uint256",
          "name": "",
          "type": "uint256"
        },
        {
          "internalType": "bytes",
          "name": "",
          "type": "bytes"
        }
      ],
      "name": "onERC1155Received",
      "outputs": [
        {
          "internalType": "bytes4",
          "name": "",
          "type": "bytes4"
        }
      ],
      "stateMutability": "pure",
      "type": "function"
    },
    {
      "inputs": [
        {
          "internalType": "address",
          "name": "",
          "type": "address"
        },
        {
          "internalType": "address",
          "name": "",
          "type": "address"
        },
        {
          "internalType": "uint256",
          "name": "",
          "type": "uint256"
        },
        {
          "internalType": "bytes",
          "name": "",
          "type": "bytes"
        }
      ],
      "name": "onERC721Received",
      "outputs": [
        {
          "internalType": "bytes4",
          "name": "",
          "type": "bytes4"
        }
      ],
      "stateMutability": "pure",
      "type": "function"
    },
    {
      "inputs": [],
      "name": "owner",
      "outputs": [
        {
          "internalType": "address",
          "name": "",
          "type": "address"
        }
      ],
      "stateMutability": "view",
      "type": "function"
    },
    {
      "inputs": [],
      "name": "proxiableUUID",
      "outputs": [
        {
          "internalType": "bytes32",
          "name": "",
          "type": "bytes32"
        }
      ],
      "stateMutability": "view",
      "type": "function"
    },
    {
      "inputs": [
        {
          "internalType": "bytes4",
          "name": "interfaceId",
          "type": "bytes4"
        }
      ],
      "name": "supportsInterface",
      "outputs": [
        {
          "internalType": "bool",
          "name": "",
          "type": "bool"
        }
      ],
      "stateMutability": "view",
      "type": "function"
    },
    {
      "inputs": [
        {
          "internalType": "address",
          "name": "",
          "type": "address"
        },
        {
          "internalType": "address",
          "name": "",
          "type": "address"
        },
        {
          "internalType": "address",
          "name": "",
          "type": "address"
        },
        {
          "internalType": "uint256",
          "name": "",
          "type": "uint256"
        },
        {
          "internalType": "bytes",
          "name": "",
          "type": "bytes"
        },
        {
          "internalType": "bytes",
          "name": "",
          "type": "bytes"
        }
      ],
      "name": "tokensReceived",
      "outputs": [],
      "stateMutability": "pure",
      "type": "function"
    },
    {
      "inputs": [
        {
          "internalType": "address",
          "name": "newImplementation",
          "type": "address"
        }
      ],
      "name": "upgradeTo",
      "outputs": [],
      "stateMutability": "nonpayable",
      "type": "function"
    },
    {
      "inputs": [
        {
          "internalType": "address",
          "name": "newImplementation",
          "type": "address"
        },
        {
          "internalType": "bytes",
          "name": "data",
          "type": "bytes"
        }
      ],
      "name": "upgradeToAndCall",
      "outputs": [],
      "stateMutability": "payable",
      "type": "function"
    },
    {
      "inputs": [
        {
          "components": [
            {
              "internalType": "address",
              "name": "sender",
              "type": "address"
            },
            {
              "internalType": "uint256",
              "name": "nonce",
              "type": "uint256"
            },
            {
              "internalType": "bytes",
              "name": "initCode",
              "type": "bytes"
            },
            {
              "internalType": "bytes",
              "name": "callData",
              "type": "bytes"
            },
            {
              "internalType": "uint256",
              "name": "callGasLimit",
              "type": "uint256"
            },
            {
              "internalType": "uint256",
              "name": "verificationGasLimit",
              "type": "uint256"
            },
            {
              "internalType": "uint256",
              "name": "preVerificationGas",
              "type": "uint256"
            },
            {
              "internalType": "uint256",
              "name": "maxFeePerGas",
              "type": "uint256"
            },
            {
              "internalType": "uint256",
              "name": "maxPriorityFeePerGas",
              "type": "uint256"
            },
            {
              "internalType": "bytes",
              "name": "paymasterAndData",
              "type": "bytes"
            },
            {
              "internalType": "bytes",
              "name": "signature",
              "type": "bytes"
            }
          ],
          "internalType": "struct UserOperation",
          "name": "userOp",
          "type": "tuple"
        },
        {
          "internalType": "bytes32",
          "name": "userOpHash",
          "type": "bytes32"
        },
        {
          "internalType": "uint256",
          "name": "missingAccountFunds",
          "type": "uint256"
        }
      ],
      "name": "validateUserOp",
      "outputs": [
        {
          "internalType": "uint256",
          "name": "validationData",
          "type": "uint256"
        }
      ],
      "stateMutability": "nonpayable",
      "type": "function"
    },
    {
      "inputs": [
        {
          "internalType": "address payable",
          "name": "withdrawAddress",
          "type": "address"
        },
        {
          "internalType": "uint256",
          "name": "amount",
          "type": "uint256"
        }
      ],
      "name": "withdrawDepositTo",
      "outputs": [],
      "stateMutability": "nonpayable",
      "type": "function"
    },
    {
      "stateMutability": "payable",
      "type": "receive"
    }
  ],
  "bytecode": {
    "object": "0x60c0604052306080523480156200001557600080fd5b5060405162001a0638038062001a068339810160408190526200003891620000d3565b6001600160a01b03811660a0526200004f62000056565b5062000105565b600054610100900460ff16156200007f5760405162dc149f60e41b815260040160405180910390fd5b60005460ff90811614620000d1576000805460ff191660ff9081179091556040519081527f7f26b83ff96e1f2b6a682f133852f6798a09c465da95921460cefb38474024989060200160405180910390a15b565b600060208284031215620000e657600080fd5b81516001600160a01b0381168114620000fe57600080fd5b9392505050565b60805160a05161188e62000178600039600081816102c4015281816105f50152818161067601528181610888015281816109f001528181610a2a01528181610bfa0152610dea01526000818161050b01528181610534015281816107080152818161073101526107c8015261188e6000f3fe60806040526004361061010c5760003560e01c806352d1902d11610095578063bc197c8111610064578063bc197c8114610308578063c399ec8814610337578063c4d66de81461034c578063d087d2881461036c578063f23a6e611461038157600080fd5b806352d1902d146102625780638da5cb5b14610277578063b0d691fe146102b5578063b61d27f6146102e857600080fd5b80633659cfe6116100dc5780633659cfe6146101d95780633a871cdd146101f95780634a58db19146102275780634d44560d1461022f5780634f1ef2861461024f57600080fd5b806223de291461011857806301ffc9a71461013f578063150b7a021461017457806318dfb3c7146101b957600080fd5b3661011357005b600080fd5b34801561012457600080fd5b5061013d610133366004611276565b5050505050505050565b005b34801561014b57600080fd5b5061015f61015a366004611327565b6103ae565b60405190151581526020015b60405180910390f35b34801561018057600080fd5b506101a061018f366004611351565b630a85bd0160e11b95945050505050565b6040516001600160e01b0319909116815260200161016b565b3480156101c557600080fd5b5061013d6101d4366004611409565b610400565b3480156101e557600080fd5b5061013d6101f4366004611475565b610500565b34801561020557600080fd5b50610219610214366004611492565b6105cd565b60405190815260200161016b565b61013d6105f3565b34801561023b57600080fd5b5061013d61024a3660046114e6565b61066c565b61013d61025d366004611528565b6106fd565b34801561026e57600080fd5b506102196107bb565b34801561028357600080fd5b5060005461029d906201000090046001600160a01b031681565b6040516001600160a01b03909116815260200161016b565b3480156102c157600080fd5b507f000000000000000000000000000000000000000000000000000000000000000061029d565b3480156102f457600080fd5b5061013d6103033660046115ec565b610819565b34801561031457600080fd5b506101a061032336600461163c565b63bc197c8160e01b98975050505050505050565b34801561034357600080fd5b50610219610868565b34801561035857600080fd5b5061013d610367366004611475565b6108f9565b34801561037857600080fd5b506102196109c9565b34801561038d57600080fd5b506101a061039c3660046116da565b63f23a6e6160e01b9695505050505050565b60006001600160e01b03198216630a85bd0160e11b14806103df57506001600160e01b03198216630271189760e51b145b806103fa57506001600160e01b031982166301ffc9a760e01b145b92915050565b610408610a1f565b8281146104525760405162461bcd60e51b815260206004820152601360248201527277726f6e67206172726179206c656e6774687360681b60448201526064015b60405180910390fd5b60005b838110156104f9576104e785858381811061047257610472611756565b90506020020160208101906104879190611475565b600085858581811061049b5761049b611756565b90506020028101906104ad919061176c565b8080601f016020809104026020016040519081016040528093929190818152602001838380828437600092019190915250610ab492505050565b806104f1816117b3565b915050610455565b5050505050565b306001600160a01b037f000000000000000000000000000000000000000000000000000000000000000016148061058757507f00000000000000000000000000000000000000000000000000000000000000006001600160a01b031661057b600080516020611839833981519152546001600160a01b031690565b6001600160a01b031614155b156105a55760405163703e46dd60e11b815260040160405180910390fd5b6105ae81610b24565b604080516000808252602082019092526105ca91839190610b2c565b50565b60006105d7610bef565b6105e18484610c67565b90506105ec82610d13565b9392505050565b7f000000000000000000000000000000000000000000000000000000000000000060405163b760faf960e01b81523060048201526001600160a01b03919091169063b760faf99034906024016000604051808303818588803b15801561065857600080fd5b505af11580156104f9573d6000803e3d6000fd5b610674610d60565b7f000000000000000000000000000000000000000000000000000000000000000060405163040b850f60e31b81526001600160a01b03848116600483015260248201849052919091169063205c287890604401600060405180830381600087803b1580156106e157600080fd5b505af11580156106f5573d6000803e3d6000fd5b505050505050565b306001600160a01b037f000000000000000000000000000000000000000000000000000000000000000016148061078457507f00000000000000000000000000000000000000000000000000000000000000006001600160a01b0316610778600080516020611839833981519152546001600160a01b031690565b6001600160a01b031614155b156107a25760405163703e46dd60e11b815260040160405180910390fd5b6107ab82610b24565b6107b782826001610b2c565b5050565b6000306001600160a01b037f000000000000000000000000000000000000000000000000000000000000000016146108065760405163703e46dd60e11b815260040160405180910390fd5b5060008051602061183983398151915290565b610821610a1f565b610862848484848080601f016020809104026020016040519081016040528093929190818152602001838380828437600092019190915250610ab492505050565b50505050565b6040516370a0823160e01b81523060048201526000906001600160a01b037f000000000000000000000000000000000000000000000000000000000000000016906370a08231906024015b602060405180830381865afa1580156108d0573d6000803e3d6000fd5b505050506040513d601f19601f820116820180604052508101906108f491906117da565b905090565b600054610100900460ff16158080156109195750600054600160ff909116105b1580156109375750303b158015610935575060005460ff166001145b155b156109545760405162dc149f60e41b815260040160405180910390fd5b6000805460ff191660011790558015610977576000805461ff0019166101001790555b61098082610db7565b80156107b7576000805461ff0019169055604051600181527f7f26b83ff96e1f2b6a682f133852f6798a09c465da95921460cefb38474024989060200160405180910390a15050565b604051631aab3f0d60e11b8152306004820152600060248201819052906001600160a01b037f000000000000000000000000000000000000000000000000000000000000000016906335567e1a906044016108b3565b336001600160a01b037f0000000000000000000000000000000000000000000000000000000000000000161480610a6657506000546201000090046001600160a01b031633145b610ab25760405162461bcd60e51b815260206004820181905260248201527f6163636f756e743a206e6f74204f776e6572206f7220456e747279506f696e746044820152606401610449565b565b600080846001600160a01b03168484604051610ad091906117f3565b60006040518083038185875af1925050503d8060008114610b0d576040519150601f19603f3d011682016040523d82523d6000602084013e610b12565b606091505b5091509150816104f957805160208201fd5b6105ca610d60565b826001600160a01b03166352d1902d6040518163ffffffff1660e01b8152600401602060405180830381865afa925050508015610b86575060408051601f3d908101601f19168201909252610b83918101906117da565b60015b610bae57604051634c9c8ce360e01b81526001600160a01b0384166004820152602401610449565b6000805160206118398339815191528114610bdf57604051632a87526960e21b815260048101829052602401610449565b610862848484610e33565b505050565b336001600160a01b037f00000000000000000000000000000000000000000000000000000000000000001614610ab25760405162461bcd60e51b815260206004820152601c60248201527f6163636f756e743a206e6f742066726f6d20456e747279506f696e74000000006044820152606401610449565b7f19457468657265756d205369676e6564204d6573736167653a0a3332000000006000908152601c829052603c8120610ce4610ca761014086018661176c565b8080601f0160208091040260200160405190810160405280939291908181526020018383808284376000920191909152508593925050610e589050565b6000546201000090046001600160a01b03908116911614610d095760019150506103fa565b5060009392505050565b80156105ca57604051600090339060001990849084818181858888f193505050503d80600081146104f9576040519150601f19603f3d011682016040523d82523d6000602084013e6104f9565b6000546201000090046001600160a01b0316331480610d7e57503330145b610ab25760405162461bcd60e51b815260206004820152600a60248201526937b7363c9037bbb732b960b11b6044820152606401610449565b6000805462010000600160b01b031916620100006001600160a01b038481168202929092178084556040519190048216927f0000000000000000000000000000000000000000000000000000000000000000909216917f47e55c76e7a6f1fd8996a1da8008c1ea29699cca35e7bcd057f2dec313b6e5de91a350565b610e3c83610e82565b600082511180610e495750805b15610bea576108628383610ec2565b600080600080610e688686610ed1565b925092509250610e788282610f1e565b5090949350505050565b610e8b81610fd7565b6040516001600160a01b038216907fbc7cd75a20ee27fd9adebab32041f755214dbc6bffa90cc0225b39da2e5c2d3b90600090a250565b60606105ec838361103c611055565b60008060008351604103610f0b5760208401516040850151606086015160001a610efd888285856110cd565b955095509550505050610f17565b50508151600091506002905b9250925092565b6000826003811115610f3257610f32611822565b03610f3b575050565b6001826003811115610f4f57610f4f611822565b03610f6d5760405163f645eedf60e01b815260040160405180910390fd5b6002826003811115610f8157610f81611822565b03610fa25760405163fce698f760e01b815260048101829052602401610449565b6003826003811115610fb657610fb6611822565b036107b7576040516335e2f38360e21b815260048101829052602401610449565b806001600160a01b03163b60000361100d57604051634c9c8ce360e01b81526001600160a01b0382166004820152602401610449565b60008051602061183983398151915280546001600160a01b0319166001600160a01b0392909216919091179055565b604051630a12f52160e11b815260040160405180910390fd5b6060600080856001600160a01b03168560405161107291906117f3565b600060405180830381855af49150503d80600081146110ad576040519150601f19603f3d011682016040523d82523d6000602084013e6110b2565b606091505b50915091506110c38683838761119c565b9695505050505050565b600080807f7fffffffffffffffffffffffffffffff5d576e7357a4501ddfe92f46681b20a08411156111085750600091506003905082611192565b604080516000808252602082018084528a905260ff891692820192909252606081018790526080810186905260019060a0016020604051602081039080840390855afa15801561115c573d6000803e3d6000fd5b5050604051601f1901519150506001600160a01b03811661118857506000925060019150829050611192565b9250600091508190505b9450945094915050565b606083156111ea5782516000036111e357846001600160a01b03163b6000036111e357604051639996b31560e01b81526001600160a01b0386166004820152602401610449565b50816111f4565b6111f483836111fc565b949350505050565b81511561120c5781518083602001fd5b61103c8163ffffffff16565b6001600160a01b03811681146105ca57600080fd5b60008083601f84011261123f57600080fd5b50813567ffffffffffffffff81111561125757600080fd5b60208301915083602082850101111561126f57600080fd5b9250929050565b60008060008060008060008060c0898b03121561129257600080fd5b883561129d81611218565b975060208901356112ad81611218565b965060408901356112bd81611218565b955060608901359450608089013567ffffffffffffffff808211156112e157600080fd5b6112ed8c838d0161122d565b909650945060a08b013591508082111561130657600080fd5b506113138b828c0161122d565b999c989b5096995094979396929594505050565b60006020828403121561133957600080fd5b81356001600160e01b0319811681146105ec57600080fd5b60008060008060006080868803121561136957600080fd5b853561137481611218565b9450602086013561138481611218565b935060408601359250606086013567ffffffffffffffff8111156113a757600080fd5b6113b38882890161122d565b969995985093965092949392505050565b60008083601f8401126113d657600080fd5b50813567ffffffffffffffff8111156113ee57600080fd5b6020830191508360208260051b850101111561126f57600080fd5b6000806000806040858703121561141f57600080fd5b843567ffffffffffffffff8082111561143757600080fd5b611443888389016113c4565b9096509450602087013591508082111561145c57600080fd5b50611469878288016113c4565b95989497509550505050565b60006020828403121561148757600080fd5b81356105ec81611218565b6000806000606084860312156114a757600080fd5b833567ffffffffffffffff8111156114be57600080fd5b840161016081870312156114d157600080fd5b95602085013595506040909401359392505050565b600080604083850312156114f957600080fd5b823561150481611218565b946020939093013593505050565b634e487b7160e01b600052604160045260246000fd5b6000806040838503121561153b57600080fd5b823561154681611218565b9150602083013567ffffffffffffffff8082111561156357600080fd5b818501915085601f83011261157757600080fd5b81358181111561158957611589611512565b604051601f8201601f19908116603f011681019083821181831017156115b1576115b1611512565b816040528281528860208487010111156115ca57600080fd5b8260208601602083013760006020848301015280955050505050509250929050565b6000806000806060858703121561160257600080fd5b843561160d81611218565b935060208501359250604085013567ffffffffffffffff81111561163057600080fd5b6114698782880161122d565b60008060008060008060008060a0898b03121561165857600080fd5b883561166381611218565b9750602089013561167381611218565b9650604089013567ffffffffffffffff8082111561169057600080fd5b61169c8c838d016113c4565b909850965060608b01359150808211156116b557600080fd5b6116c18c838d016113c4565b909650945060808b013591508082111561130657600080fd5b60008060008060008060a087890312156116f357600080fd5b86356116fe81611218565b9550602087013561170e81611218565b94506040870135935060608701359250608087013567ffffffffffffffff81111561173857600080fd5b61174489828a0161122d565b979a9699509497509295939492505050565b634e487b7160e01b600052603260045260246000fd5b6000808335601e1984360301811261178357600080fd5b83018035915067ffffffffffffffff82111561179e57600080fd5b60200191503681900382131561126f57600080fd5b6000600182016117d357634e487b7160e01b600052601160045260246000fd5b5060010190565b6000602082840312156117ec57600080fd5b5051919050565b6000825160005b8181101561181457602081860181015185830152016117fa565b506000920191825250919050565b634e487b7160e01b600052602160045260246000fdfe360894a13ba1a3210667c828492db98dca3e2076cc3735a920a3ca505d382bbca2646970667358221220b185b8929c9541edf19de6b615db7cda3e5a444cacc903a4622ae7585eb1a4ca64736f6c63430008140033",
    "linkReferences": {}
  }
}